:060000000A128A1110280B
:10000800FE00030E83160313B2000A08B3007F082C
:10001800B4000A128A15482D0A128A111328831669
:100028000313D201D301D401D501D601D701D801D8
:10003800D901DA0183160317E301E40183010A16E3
:100048008A11442B8316031720088039A500250838
:10005800AA002008A5002507A6002608B0009F1FB3
:100068003628372838283014300803193C283D280A
:100078004C28300A031D412842284A280030A00095
:1000880000309F0000309E0000309D009F175428CC
:100098000030A00000309F0000309E0000309D001E
:1000A80024088039A5002508AA062408A5002507E4
:1000B800A6002608AB00A31F6228632864282B1417
:1000C8002B0803196828692878282B0A031D6D282E
:1000D8006E2876280030A4000030A3000030A2006B
:1000E8000030A100A31780280030A4000030A3002E
:1000F8000030A2000030A1002B08031984288528AD
:100108008A283008031D89288A2893280030A000EF
:1001180000309F0000309E0000309D00E02B1D083D
:10012800A500250883160313B500831603172308B3
:100138000A168A1160200A128A11831603133608D8
:1001480083160317B600831603133508831603179F
:10015800B5003508A500A601A701A8012808AF0029
:100168002708AE002608AD002508AC003608A50013
:10017800A601A701A8012808B4002708B30026088B
:10018800B2002508B1001E08A50025088316031330
:10019800B5008316031722080A168A1160200A126E
:1001A8008A1183160313360883160317B6008316BD
:1001B8000313350883160317B5003508A500A601F3
:1001C800A701A8012508AC07260803110318013E5A
:1001D8000319EF28AD07270803110318013E031977
:1001E800F628AE07280803110318013E0319FD2855
:1001F800AF073608A500A601A701A8012508B10781
:10020800260803110318013E03190B29B207270812
:1002180003110318013E03191229B3072808031113
:100228000318013E03191929B4071F08A50025085A
:1002380083160313B5008316031721080A168A11BB
:1002480060200A128A1183160313360883160317CF
:10025800B60083160313350883160317B50035084F
:10026800A500A601A701A8012508AC0726080311C7
:100278000318013E03194129AD0727080311031884
:10028800013E03194829AE07280803110318013E47
:1002980003194F29AF073608A500A601A701A80131
:1002A8002508B107260803110318013E03195D2923
:1002B800B207270803110318013E03196429B3077D
:1002C800280803110318013E03196B29B4070830E5
:1002D800A5000310AC0DAD0DAE0DAF0DA50B6D292E
:1002E8001E08A500250883160313B50083160317F7
:1002F80021080A168A1160200A128A11831603132C
:10030800360883160317B6008316031335088316B9
:100318000317B5003508A5003608A600A701A801EF
:100328002508AC07260803110318013E03199D2967
:10033800AD07270803110318013E0319A429AE07C6
:10034800280803110318013E0319AB29AF071D083C
:10035800A500250883160313B50083160317220882
:100368000A168A1160200A128A11831603133608A6
:1003780083160317B600831603133508831603176D
:10038800B5003508A5003608A600A701A80125086C
:10039800AC07260803110318013E0319D429AD0739
:1003A800270803110318013E0319DB29AE072808A3
:1003B80003110318013E0319E229AF070830A5000D
:1003C8000310AC0DAD0DAE0DAF0DA50BE4291D0846
:1003D800A500250883160313B50083160317210803
:1003E8000A168A1160200A128A1183160313360826
:1003F80083160317B60083160313350883160317ED
:10040800B5003508A5003608A600A701A8012508EB
:10041800AC07260803110318013E0319142AAD0777
:10042800270803110318013E03191B2AAE072808E1
:1004380003110318013E0319222AAF071E08A5005D
:10044800250883160313B5008316031723080A1615
:100458008A1160200A128A1183160313360883163C
:100468000317B60083160313350883160317B50060
:100478003508A5003608A600A701A8012508B10778
:10048800260803110318013E03194B2AB20727084F
:1004980003110318013E0319522AB3072808031150
:1004A8000318013E0319592AB4071F08A500250897
:1004B80083160313B5008316031722080A168A1138
:1004C80060200A128A11831603133608831603174D
:1004D800B60083160313350883160317B5003508CD
:1004E800A5003608A600A701A8012508B107260817
:1004F80003110318013E0319822AB20727080311C2
:100508000318013E0319892AB307280803110318A1
:10051800013E0319902AB4071F08A5002508831671
:100528000313B5008316031723080A168A116020DF
:100538000A128A1183160313360883160317B600A6
:1005480083160313350883160317B5003508A5006D
:100558003608A600A701A80108300310A50DA60DAE
:10056800A70DA80DFF3E031DB12A2508B1072608CF
:1005780003110318013E0319C22AB2072708031101
:100588000318013E0319C92AB307280803110318E1
:10059800013E0319D02AB4072C08A5002D08A6008F
:1005A8002E08A7002F08A80018300310A80CA70CC5
:1005B800A60CA50CFF3E031DD92A2508B10726085D
:1005C80003110318013E0319EA2AB2072708031189
:1005D8000318013E0319F12AB30728080311031869
:1005E800013E0319F82AB4070830A5000310AC0D22
:1005F800AD0DAE0DAF0DA50BFA2A30082B07A500DF
:10060800A601A60D2508823EB50026080318013E5E
:10061800FF3EB6002C2B0130A5000310B10DB20D22
:10062800B30DB40DA50B112BAF1F1B2B1C2B1D2BB2
:1006380031140130A5000310AC0DAD0DAE0DAF0D9A
:10064800A50B1F2BFF30B5070318B60AFF30B607F6
:10065800B31F2F2B302B0F2BAB01AF1F342B352B98
:10066800512BFF302C05A500FF302D05A600FF30CB
:100678002E05A7007F302F05A80028082704260488
:1006880025040319482B492B4C2BAB01AB0A512BE2
:10069800311C4F2B502B512B492B2B080319552B51
:1006A800562B872B0130B107003003180130B207F1
:1006B800003003180130B307003003180130B407C5
:1006C800341C672B682B872B3108A5003208A6003D
:1006D8003308A7003408A8000130A900280DA80C89
:1006E800A70CA60CA50CA90B722B2808B400270888
:1006F800B3002608B2002508B1000130B507031879
:10070800B60A0030B6073608803AFF0080307F020C
:10071800031D902BFF303502031C932B942B9F2B2A
:100728007F3083160317B4008030B3000030B20066
:100738000030B100D42B831603173608803AFF0027
:1007480080307F02031DAA2B013035020318AD2B20
:10075800AE2BBA2B003083160317B4000030B30059
:100768000030B2000030B100AA01D42B8316031761
:100778003508A5002508B000FF30B105FF30B205E7
:100788007F30B3050030B405301CCB2BCC2BCD2BE0
:10079800B3173008A5000310250CA6002608B400DE
:1007A8002A08A5002508B4043408A00033089F00CF
:1007B80032089E0031089D000800831203133D088B
:1007C8008039C2004208C7003D08C2004207C30082
:1007D8004308CD00BC1FF12BF22BF32B4D144D0811
:1007E8000319F72BF82B072C4D0A031DFC2BFD2BA7
:1007F800052C0030BD000030BC000030BB000030CC
:10080800BA00BC170F2C0030BD000030BC0000300F
:10081800BB000030BA0041088039C2004208C70650
:100828004108C2004207C3004308CC00C01F1D2C6A
:100838001E2C1F2C4C144C080319232C242C332C4D
:100848004C0A031D282C292C312C0030C100003003
:10085800C0000030BF000030BE00C0173B2C003085
:10086800C1000030C0000030BF000030BE004C089E
:1008780003193F2C402C452C4D08031D442C452CB6
:100888004E2C0030BD000030BC000030BB000030F2
:10089800BA00412F3A08C2004208F00040080A1680
:1008A8008A1139200A128A11710883120313D3009E
:1008B8007008D2005208C200C301C401C50145082E
:1008C800CB004408CA004308C9004208C8005308BE
:1008D800C200C301C401C5014508D1004408D000C5
:1008E8004308CF004208CE003B08C2004208F0008F
:1008F8003F080A168A1139200A128A1171088312D0
:100908000313D3007008D2005208C200C301C40107
:10091800C5014208C807430803110318013E03191B
:10092800962CC907440803110318013E03199D2C8E
:10093800CA07450803110318013E0319A42CCB0765
:100948005308C200C301C401C5014208CE074308C9
:1009580003110318013E0319B22CCF0744080311F1
:100968000318013E0319B92CD007450803110318D1
:10097800013E0319C02CD1073C08C2004208F00010
:100988003E080A168A1139200A128A117108831240
:100998000313D3007008D2005208C200C301C40177
:1009A800C5014208C807430803110318013E03198B
:1009B800DE2CC907440803110318013E0319E52C6E
:1009C800CA07450803110318013E0319EC2CCB078D
:1009D8005308C200C301C401C5014208CE07430839
:1009E80003110318013E0319FA2CCF074408031119
:1009F8000318013E0319012DD007450803110318F8
:100A0800013E0319082DD1070830C2000310C80D94
:100A1800C90DCA0DCB0DC20B0A2D3B08C2004208F6
:100A2800F0003E080A168A1139200A128A11710844
:100A380083120313D3007008D2005208C20053086F
:100A4800C300C401C5014208C807430803110318BD
:100A5800013E0319302DC907440803110318013E4C
:100A68000319372DCA07450803110318013E031956
:100A78003E2DCB073A08C2004208F0003F080A168C
:100A88008A1139200A128A11710883120313D300BC
:100A98007008D2005208C2005308C300C401C5013F
:100AA8004208C807430803110318013E03195D2DC6
:100AB800C907440803110318013E0319642DCA0726
:100AC800450803110318013E03196B2DCB070830A5
:100AD800C2000310C80DC90DCA0DCB0DC20B6D2D78
:100AE8003A08C2004208F0003E080A168A11392066
:100AF8000A128A11710883120313D3007008D200F6
:100B08005208C2005308C300C401C5014208C807FF
:100B1800430803110318013E0319932DC90744081C
:100B280003110318013E03199A2DCA07450803113A
:100B38000318013E0319A12DCB073B08C200420848
:100B4800F00040080A168A1139200A128A11710821
:100B580083120313D3007008D2005208C20053084E
:100B6800C300C401C5014208CE0743080311031896
:100B7800013E0319C02DCF07440803110318013E95
:100B88000319C72DD007450803110318013E03199F
:100B9800CE2DD1073C08C2004208F0003F080A16D3
:100BA8008A1139200A128A11710883120313D3009B
:100BB8007008D2005208C2005308C300C401C5011E
:100BC8004208CE07430803110318013E0319ED2D0F
:100BD800CF07440803110318013E0319F42DD00769
:100BE800450803110318013E0319FB2DD1073C08E2
:100BF800C2004208F00040080A168A1139200A1279
:100C08008A11710883120313D3007008D2005208A6
:100C1800C2005308C300C401C50108300310C20D47
:100C2800C30DC40DC50DFF3E031D122E4208CE078D
:100C3800430803110318013E0319232ECF07440864
:100C480003110318013E03192A2ED0074508031182
:100C58000318013E0319312ED1074808C20049087C
:100C6800C3004A08C4004B08C50018300310C50C5F
:100C7800C40CC30CC20CFF3E031D3A2E4208CE071B
:100C8800430803110318013E03194B2ECF074408EC
:100C980003110318013E0319522ED007450803110A
:100CA8000318013E0319592ED1070830C20003105A
:100CB800C80DC90DCA0DCB0DC20B5B2E4D084C07D4
:100CC800C200C301C30D4208823ED2004308031884
:100CD800013EFF3ED3008D2E0130C2000310CE0D21
:100CE800CF0DD00DD10DC20B722ECB1F7C2E7D2EB9
:100CF8007E2E4E140130C2000310C80DC90DCA0D56
:100D0800CB0DC20B802EFF30D2070318D30AFF3059
:100D1800D307D01F902E912E702ECC01CB1F952E6D
:100D2800962EB22EFF304805C200FF304905C30099
:100D3800FF304A05C4007F304B05C5004508440410
:100D4800430442040319A92EAA2EAD2ECC01CC0AC5
:100D5800B22E4E1CB02EB12EB22EAA2E4C0803195C
:100D6800B62EB72EE82E0130CE070030031801301A
:100D7800CF07003003180130D007003003180130C6
:100D8800D107511CC82EC92EE82E4E08C2004F08A4
:100D9800C3005008C4005108C5000130C600450D05
:100DA800C50CC40CC30CC20CC60BD32E4508D1000D
:100DB8004408D0004308CF004208CE000130D207D3
:100DC8000318D30A0030D3075308803AFF00803055
:100DD8007F02031DF12EFF305202031CF42EF52E64
:100DE800002F7F3083120313D1008030D0000030F1
:100DF800CF000030CE00352F831203135308803AFA
:100E0800FF0080307F02031D0B2F013052020318B0
:100E18000E2F0F2F1B2F003083120313D100003029
:100E2800D0000030CF000030CE00C701352F83122C
:100E380003135208C2004208CD00FF30CE05FF3030
:100E4800CF057F30D0050030D1054D1C2C2F2D2F1C
:100E58002E2FD0174D08C2000310420CC3004308C0
:100E6800D1004708C2004208D1045108BD0050080B
:100E7800BC004F08BB004E08BA00080083160313D5
:100E8800BD003D080319492F4A2F5E2FB81F4D2F6B
:100E98004E2F5E2F3509BF003609C0003709C10043
:100EA8003809C200BF0A0319C00A0319C10A031985
:100EB800C20A662F3808C2003708C1003608C000C9
:100EC8003508BF003808370436043504031D6D2F74
:100ED8006E2F772F0030B8000030B7000030B60012
:100EE8000030B500FD2F9630B9003908BE00892FB3
:100EF8000130B9003908BE0701300310C20CC10C1B
:100F0800C00CBF0CFF3E031D812FFE304205031DA0
:100F18008E2F8F2F7C2FAB2F0130B9003908BE07D9
:100F28000130BF07003003180130C0070030031834
:100F38000130C107003003180130C2070130031027
:100F4800C20CC10CC00CBF0CFF3E031DA32FFF3009
:100F58004205031DB02FB12F902FBD2F0130BE02C7
:100F68000130B9000310BF0DC00DC10DC20DB90B82
:100F7800B62FC11BC02FC12FC72F02303E02031846
:100F8800C62FC72FB22F3E18CA2FCB2FD32FFF3013
:100F9800BF05FF30C0057F30C105FF30C205031013
:100FA800BE0C3E08B900BA01BB01BC0118300310E1
:100FB800B90DBA0DBB0DBC0DFF3E031DDB2F390863
:100FC800BF043A08C0043B08C1043C08C2043D08F9
:100FD8000319EF2FF02FF52FB81FF32FF42FF52F4C
:100FE800C2174208B8004108B7004008B6003F08D9
:040FF800B500080038
:10101200F1007108831203178D0070088C0083168B
:1010220003178C130C158B130B1355308D00AA303C
:101032008D008C140C110B108B170B1708008316E4
:1010420003173A088039BF003F08C7003A08BF00BB
:101052003F07C0004008C900B91F30283128322894
:10106200491449080319362837284728490A031D15
:101072003B283C2844280030BA000030B900003038
:10108200B8000030B700B917BA014F280030BA00D3
:101092000030B9000030B8000030B7003E08803997
:1010A200BF003F08C80048084706031959285A28B4
:1010B2005B2847173E08BF003F07C0004008C80032
:1010C200BD1F6428652866284814480803196A2841
:1010D2006B287B28480A031D6F2870287828003067
:1010E200BE000030BD000030BC000030BB00BD17A8
:1010F200BE0183280030BE000030BD000030BC00BD
:101102000030BB0049084802031888288928CD28E6
:10111200471F8C288D2891288030BF003F08C706C2
:101122004908BF003F08CA004808BF003F08C9007D
:101132004A08BF003F08C8003708BF003F08CA007E
:101142003B08BF003F08B7004A08BF003F08BB008A
:101152003808BF003F08CA003C08BF003F08B8007B
:101162004A08BF003F08BC003908BF003F08CA0058
:101172003D08BF003F08B9004A08BF003F08BD0054
:101182003A08BF003F08CA003E08BF003F08BA0045
:101192004A08BF003F08BE00CA014808BF00C0019C
:1011A2004008C20049083F02C100031CC2034208B2
:1011B200803AFF0080307F02031DE1281A3041028D
:1011C200031CE428E5282229831603173A08390468
:1011D20038043704031DEE28F0280130F1280030CE
:1011E200BF003F08CA000030BA000030B90000302A
:1011F200B8000030B7004808BF003F08C9002A29DC
:101202004A1C042905290E294A08BF0003103F0C75
:101212000138C0004008CA0010290310CA0C371C4C
:10122200132914291529CA170130BF003A0DBA0C27
:10123200B90CB80CB70CBF0B17290130BF003F081F
:10124200C9078316031748084902031C29292A29BA
:101252000129471B2D292E2979294908031D3229E5
:1012620033293C290030BA000030B9000030B80000
:101272000030B700A72A3B08B7073C080311031840
:10128200013E03194529B8073D0803110318013E21
:1012920003194C29B9073E0803110318013E03192B
:1012A2005329BA073A1C562957292D2A4A1C5A296A
:1012B2005B2964294A08BF0003103F0C0138C000B3
:1012C2004008CA0066290310CA0C371C69296A291A
:1012D2006B29CA170130BF003A0DBA0CB90CB80C11
:1012E200B70CBF0B6D290130BF003F08C9072D2A7B
:1012F2003A08803AFF003E08803A7F02031D8B299C
:101302003D083902031D8B293C083802031D8B2935
:101312003B08370203188E298F29E729FF30BF00C7
:10132200FF30C000FF30C100FF30C2003B08C300E5
:101332003C08C4003D08C5003E08C6003708C30289
:101342003808031C380FA629A729C4023908031C30
:10135200390FAC29AD29C5023A08031C3A0FB2294C
:10136200B329C6024308BF0744080318440FBA2929
:10137200BB29C00745080318450FC029C129C10769
:1013820046080318460AC2074208BA004108B900D3
:101392004008B8003F08B7008030BF003F08C706CA
:1013A200CA09CA0A4A08031DD729D829F5290130D2
:1013B200B707003003180130B807003003180130B6
:1013C200B907003003180130BA07F5293B08B70204
:1013D2003C08031C3C0FB8023D08031C3D0FB90238
:1013E2003E08031C3E0FBA023A0839043804370497
:1013F200031DFC29FD29292A4A08031D012A022A64
:10140200292A0030BA000030B9000030B80000309C
:10141200B700A72A0130BF000310B70DB80DB90DF0
:10142200BA0DBF0B0D2ACA1F172A182A192A3714F8
:101432004A1C1C2A1D2A202A0314CA0D222A031020
:10144200CA0D49080319262A272A292A0130C90266
:10145200B91F2C2A2D2A0B2AC801CA1F312A322A67
:10146200402A4A087F390319372A382A3B2AC801F9
:10147200C80A402A371C3E2A3F2A402A382A4808EE
:101482000319442A452A792A0130B7070030031884
:101492000130B807003003180130B90700300318D3
:1014A2000130BA073A1C562A572A792A3708BF0050
:1014B2003808C0003908C1003A08C2000130C30030
:1014C200420DC20CC10CC00CBF0CC30B612A4208F6
:1014D200BA004108B9004008B8003F08B700490AFD
:1014E2000319742A752A792A0130BF003F08C907F7
:1014F200490A03197D2A7E2A832A4908031D822A62
:10150200832A912A0030BA000030B9000030B800B6
:101512000030B7004908031D8F2A902A912AC7017B
:10152200491C942A952A972AB9179B2A7F30BF0013
:101532003F08B9054908BF0003103F0CC00040082E
:10154200BA00C71FA52AA62AA72ABA170800831617
:1015520003134A088039CB004B0883160317940003
:10156200831603134A08CB004B07CC004C088316A2
:1015720003179B0083160313C91FC02AC12AC42A5A
:10158200831603171B14831603171B080319CA2A91
:10159200CB2ADE2A1B0A031DCF2AD02ADA2A0030E0
:1015A20083160313CA000030C9000030C80000309F
:1015B200C7000313C917CA01E82A003083160313B0
:1015C200CA000030C9000030C8000030C700460819
:1015D2008039CB004B088316031794068316031336
:1015E2004608CB004B07CC004C08831603179C001F
:1015F20083160313C51FFE2AFF2A022B8316031725
:101602001C14831603171C080319082B092B1C2B07
:101612001C0A031D0D2B0E2B182B003083160313EF
:10162200C6000030C5000030C4000030C300031300
:10163200C517C601262B003083160313C6000030DF
:10164200C5000030C4000030C3004608450444040D
:101652004304031D2D2B2E2B4B2B0030CA000030D0
:10166200C9000030C8000030C7008030C9047F3094
:10167200CA0483160317140883160313CB004B08FE
:10168200CA044A08C6004908C5004808C4004708F9
:10169200C300472D831603171B08031D512B522B22
:1016A2005D2B003083160313C6000030C5000030E6
:1016B200C4000030C300472D1B0883160313CB0060
:1016C200CC014C08CE00831603171C0883160313A3
:1016D2004B02CD00031CCE034D087F3E8316031739
:1016E2009500831603134E080318013E003E83162D
:1016F20003179600831603134A08831603179300F1
:1017020083160313490883160317920083160313E3
:10171200480883160317910083160313470883169C
:1017220003179000003083160313CA000030C9006B
:101732000030C8000030C7000030831603179A003B
:101742000030990000309800003097009C012F2C47
:101752001C080319AD2BAE2BDD2B013083160313AE
:10176200CB00031083160317900D910D920D930D6C
:1017720083160313CB0BB22B0130CB000310C70D22
:10178200C80DC90DCA0DCB0BBF2B831603179A1FA9
:10179200CB2BCC2BCF2B831603134714013003130F
:1017A200CB00031083160317970D980D990D9A0D10
:1017B20083160313CB0BD22B03134608831603178E
:1017C2001302031DFA2B831603134508831603170E
:1017D2001202031DFA2B8316031344088316031700
:1017E2001102031DFA2B83160313430883160317F2
:1017F2001002031CFD2BFE2B272C1A178316031332
:101802004308831603179002831603134408031C2C
:10181200440F0C2C0F2C831603179102831603130B
:101822004508031C450F162C192C83160317920228
:10183200831603134608031C460F202C232C831601
:1018420003179302831603138316031701308316BB
:101852000313CB004B08831603179C071A301C0294
:10186200031C342C352CA92B130812041104100468
:1018720003193C2C3D2C672C1714672C0130CB002C
:101882000310C70DC80DC90DCA0DCB0B412C831611
:1018920003179A1F4D2C4E2C512C831603134714F9
:1018A20001300313CB00031083160317970D980D15
:1018B200990D9A0D83160313CB0B542CFF3083160C
:1018C200031795070318960AFF309607831603132A
:1018D200C91F6C2C6D2C3F2C831603179C019A1F79
:1018E200732C742CA02CFF30170583160313CB0026
:1018F200FF3083160317180583160313CC00FF303D
:1019020083160317190583160313CD007F30831640
:1019120003171A0583160313CE004E084D044C0418
:101922004B040319952C962C9B2C831603179C01B0
:101932009C0AA02C471C9E2C9F2CA02C962C831614
:1019420003171C080319A62CA72CDC2C01308316C4
:101952000313C707003003180130C807003003180B
:101962000130C907003003180130CA074A1CBA2CDB
:10197200BB2CDC2C4708CB004808CC004908CD0022
:101982004A08CE000130CF004E0DCE0CCD0CCC0C4F
:10199200CB0CCF0BC52C4E08CA004D08C9004C0811
:1019A200C8004B08C70001308316031795070318B8
:1019B200960A00309607831603171608803AFF002E
:1019C20080307F02031DE72CFF301502031CEA2C36
:1019D200EB2CFB2CFF30831603179500003096008A
:1019E200003083160313CA000030C9000030C8005B
:1019F2000030C700831603171608803AFF008030B4
:101A02007F02031D062D013015020318092D0A2D30
:101A12001B2D8316031795019601003083160313BD
:101A2200CA000030C9000030C8000030C700831669
:101A32000317940183160317150883160313CB00AB
:101A42004B08831603179B001B1C282D292D2D2DB7
:101A520083160313C917332D7F3083160313CB006C
:101A62004B08C905831603171B0883160313CB0003
:101A720003104B0CCC004C08CA0083160317140841
:101A820083160313CB004B08CA04422B08000B1C1D
:101A92004B2D4C2DFA2E831203130618512D522D65
:101AA200602D013083160313B0003008D6070330CF
:101AB2005602031C5D2D5E2DF92ED601F92E8618D5
:101AC200632D642D322E831603135608031D6A2DCF
:101AD2006B2DD22D01300A168A15B2230A128A15ED
:101AE20083160313B000B1013008D4003108D500C9
:101AF2005408B000300883120313EF0001300A16B5
:101B02008A15D6240A128A1583120313881002300A
:101B12000A168A15B2230A128A150A168A11132086
:101B22000A128A15093083160313B1001B30B00064
:101B3200B00B992DB10B992D9E2D03300A168A15E3
:101B4200B2230A128A1583160313B000B1013008BA
:101B5200D2003108D3005208B000300883120313B8
:101B6200EF0002300A168A15D6240A128A15831249
:101B72000313881404300A168A15B2230A128A152E
:101B82000A168A1113200A128A15093083160313C2
:101B9200B1001B30B000B00BCC2DB10BCC2DD12D30
:101BA200F92E5603031DD62DD72DF92E5A08B00053
:101BB2003008F00001300A128A1509200A128A152B
:101BC200093083160313B1001B30B000B00BE72DB0
:101BD200B10BE72DEC2D831603135908B000300822
:101BE200F00002300A128A1509200A128A150930F9
:101BF20083160313B1001B30B000B00BFE2DB10BE6
:101C0200FE2D032E831603135808B0003008F0008F
:101C120003300A128A1509200A128A15093083161E
:101C22000313B1001B30B000B00B152EB10B152EF3
:101C32001A2E831603135708B0003008F000043040
:101C42000A128A1509200A128A150930831603130B
:101C5200B1001B30B000B00B2C2EB10B2C2E312E4C
:101C6200F92E0619352E362EF92E83160313560831
:101C7200031D3C2E3D2EA42E05300A168A15B223D2
:101C82000A128A1583160313B000B1013008D4007A
:101C92003108D5005408B000300883120313EF0056
:101CA20001300A168A15D6240A128A1583120313E2
:101CB200881006300A168A15B2230A128A150A16E5
:101CC2008A1113200A128A15093083160313B100F0
:101CD2001B30B000B00B6B2EB10B6B2E702E073089
:101CE2000A168A15B2230A128A1583160313B00044
:101CF200B1013008D2003108D3005208B0003008D8
:101D020083120313EF0002300A168A15D6240A1230
:101D12008A1583120313881408300A168A15B2230F
:101D22000A128A150A168A1113200A128A15093014
:101D320083160313B1001B30B000B00B9E2EB10B03
:101D42009E2EA32EF92E5603031DA82EA92EF92E80
:101D52005A08B0003008F00005300A128A1509202E
:101D62000A128A15093083160313B1001B30B00022
:101D7200B00BB92EB10BB92EBE2E83160313590820
:101D8200B0003008F00006300A128A1509200A1243
:101D92008A15093083160313B1001B30B000B00B53
:101DA200D02EB10BD02ED52E831603135808B000B7
:101DB2003008F00007300A128A1509200A128A1523
:101DC200093083160313B1001B30B000B00BE72EAD
:101DD200B10BE72EEC2E831603135708B000300820
:101DE200F00008300A128A1509200A128A15262ED6
:101DF2000B10831203130C1FFF2E002FF52F1F0C45
:101E020083160313B000300C0F39043A031D0A2F56
:101E12000B2F2B2F6C30831203131E020318122F69
:101E2200132F182F83160317E401E40A572F933058
:101E32001E02031C1D2F1E2F272F02308316031391
:101E4200B000300883160317E400572F83160317D8
:101E5200E401572F831203131F0C83160313B000E0
:101E6200300C0F39053A031D372F382F572F6C309E
:101E7200831203131E0203183F2F402F452F831690
:101E82000317E301E30A572F93301E02031C4A2F64
:101E92004B2F542F023083160313B00030088316E1
:101EA2000317E300572F83160317E30103135603A7
:101EB200031D5C2F5D2FF22F831203131F0C831659
:101EC2000313B000300C0F39003A031D692F6A2F3B
:101ED200832F831203131E0883160313B0003008E6
:101EE200DA00831203131E0883160313B0003008AE
:101EF20083120313EF0001300A168A15D6240A1240
:101F02008A15F22F831203131F0C83160313B000DA
:101F1200300C0F39013A031D8F2F902FAD2F8312F2
:101F220003131E0883160313B0003008D90083126E
:101F3200031388101E080A168A1113200A128A1522
:101F4200093083160313B1001B30B000B00BA72F6A
:101F5200B10BA72FAC2FF22F831203131F0C831682
:101F62000313B000300C0F39023A031DB92FBA2FF8
:101F7200D32F831203131E0883160313B0003008F5
:101F8200D800831203131E0883160313B00030080F
:101F920083120313EF0002300A168A15D6240A129E
:101FA2008A15F22F831203131F0C83160313B0003A
:101FB200300C0F39033A031DDF2FE02FF22F83126B
:101FC20003131E0883160313B0003008D7008312D0
:101FD200031388141E080A168A1113200A128A157E
:101FE200A12F831203130C13831603133408FF006B
:0E1FF20033088A00320E8300FE0E7E0E0900B8
:1020080083160313B5003508831203178D00831652
:1020180003178C130C14831203170C080800F00024
:102028008312031308107008930083160313141CFB
:102038001E281F2819288312031308140800831662
:102048000313B5008312031308108316031335080E
:1020580083120313930083160313141C34283528A2
:102068002F288312031308140800F800F401F5015F
:102078007008F200F3017208F6007308F700781C84
:10208800462847284D287608F4070318F50A7708E4
:10209800F50701300310F60DF70DFF3E031D4E281E
:1020A8000310F80C7808031D5A285B284328750884
:1020B800F1007408F000080083160313BD00B9018D
:1020C800BA013508B700B8013708BB003808BC00AA
:1020D8003D1C6F28702876283B08B9070318BA0AF0
:1020E8003C08BA0701300310BB0DBC0DFF3E031DB1
:1020F80077280310BD0C3D08031D832884286C280D
:102108003A08B6003908B500080083160317DA0044
:10211800560883160313B50083160317570883164A
:102128000313B600B701B80100300A128A1142271A
:102138000A168A1183160313380883160317BE007C
:1021480083160313370883160317BD00831603137A
:10215800360883160317BC00831603133508831645
:102168000317BB005608580283160313B5008316DD
:1021780003175708031C570A590283160313B6009E
:10218800B701B80100300A128A1142270A168A11CB
:10219800831603133808CA003708C9003608C80070
:1021A8003508C7008316031754085502831603130E
:1021B800B500B601031CB603B701B61BB703370851
:1021C800B80001300A128A1142270A168A118316AA
:1021D80003133808C6003708C5003608C400350898
:1021E800C3000A128A15A8220A168A118316031335
:1021F800460883160317A40083160313450883169D
:102208000317A30083160313440883160317A200B9
:1022180083160313430883160317A10054085A02B0
:1022280083160313B500B601031CB603B701B61B2A
:10223800B7033708B80001300A128A1142270A1674
:102248008A1183160313380883160317A000831610
:1022580003133708831603179F00831603133608E2
:10226800831603179E008316031335088316031776
:102278009D000A128A1126200A168A11831603174E
:102288002008BA001F08B9001E08B8001D08B700CA
:102298000A128A1520200A168A11831603173A088B
:1022A800CE003908CD003808CC003708CB000A1614
:1022B8008A1566250A168A11831603174C08D50055
:1022C8004B08D40008008312031327088039A8009C
:1022D8002808B1002708A8002807A9002908B8007D
:1022E800A61F7729782979293814380803197D29F0
:1022F8007E298E29380A031D822983298B290030DB
:10230800A7000030A6000030A5000030A400A617E2
:10231800A70196290030A7000030A6000030A500CC
:102328000030A40023088039A8002808B106230833
:10233800A8002807A9002908B900A21FA429A529CF
:10234800A629391439080319AA29AB29BB29390A3E
:10235800031DAF29B029B8290030A3000030A2001E
:102368000030A1000030A000A217A301C32900304B
:10237800A3000030A2000030A1000030A000230814
:10238800220421042004031DCA29CB29E429003092
:10239800A7000030A6000030A5000030A40080305F
:1023A800A6047F30A7043108A8002808A704270836
:1023B800A3002608A2002508A1002408A000432B9A
:1023C8003808031DE829E929F2290030A300003064
:1023D800A2000030A1000030A000432B3808A8005C
:1023E800A9012908AB0039082802AA00031CAB037D
:1023F8002A087F3EB2002B080318013E003EB300B6
:102408002708B0002608AF002508AE002408AD0054
:102418000030A7000030A6000030A5000030A4005E
:102428000030B7000030B6000030B5000030B4000E
:10243800B901682A39080319222A232A432A0130B4
:10244800A8000310AD0DAE0DAF0DB00DA80B252AD9
:102458000130A8000310A40DA50DA60DA70DA80B0B
:102468002E2AB71F382A392A3A2A24140130A800FC
:102478000310B40DB50DB60DB70DA80B3C2A2308F3
:102488003002031D512A22082F02031D512A210858
:102498002E02031D512A20082D02031C542A552AF6
:1024A800642A37172008AD022108031C210FAE0249
:1024B8002208031C220FAF022308031C230FB002BB
:1024C8000130A8002808B9071A303902031C6D2A00
:1024D8006E2A1E2A30082F042E042D040319752A8B
:1024E800762A952A3414952A0130A8000310A40DE1
:1024F800A50DA60DA70DA80B7A2AB71F842A852A31
:10250800862A24140130A8000310B40DB50DB60DA9
:10251800B70DA80B882AFF30B2070318B30AFF309B
:10252800B307A61F982A992A782AB901B71F9D2AA6
:102538009E2ABA2AFF303405A800FF303505A900C5
:10254800FF303605AA007F303705AB002B082A0478
:10255800290428040319B12AB22AB52AB901B90AEB
:10256800BA2A241CB82AB92ABA2AB22A390803195D
:10257800BE2ABF2AF02A0130A40700300318013010
:10258800A507003003180130A607003003180130F2
:10259800A707271CD02AD12AF02A2408A800250832
:1025A800A9002608AA002708AB000130AC002B0DB3
:1025B800AB0CAA0CA90CA80CAC0BDB2A2B08A700A7
:1025C8002A08A6002908A5002808A4000130B20797
:1025D8000318B30A0030B3073308803AFF0080308D
:1025E8007F02031DF92AFF303202031CFC2AFD2A50
:1025F8000B2BFF3083120313B2000030B3000030FE
:10260800A7000030A6000030A5000030A400831207
:1026180003133308803AFF0080307F02031D162B16
:10262800013032020318192B1A2B272B831203139C
:10263800B201B3010030A7000030A6000030A500A9
:102648000030A400B101831203133208A80028083F
:10265800B800381C302B312B332BA617372B7F3083
:10266800A8002808A6053808A8000310280CA90007
:102678002908A7003108A8002808A704DB290800B2
:102688000A168A15BF230A168A1101300A168A11FA
:1026980004200A168A1183160317E100E201610873
:1026A80083160313D40083160317620883160313D3
:1026B800D500540883160317E1006108DB000130D8
:1026C8000A168A154A240A168A11831203138810D7
:1026D80002300A168A1104200A168A110A168A116B
:1026E80023200A168A11093083160317E2001B30CB
:1026F800E100E10B7D2BE20B7D2B822B03300A16C8
:102708008A1104200A168A1183160317E100E201D0
:10271800610883160313D200831603176208831611
:102728000313D300520883160317E1006108DB0086
:1027380002300A168A154A240A168A1183120313CC
:10274800881404300A168A1104200A168A110A16F7
:102758008A1123200A168A11093083160317E2000A
:102768001B30E100E10BB62BE20BB62BBB2B83121F
:1027780003139F18C02BC12B312C1F0C8316031772
:10278800E100610C0F39003A031DCB2BCC2BD32B66
:10279800831203131F08C33904389F00272C8312A0
:1027A80003131F0C83160317E100610C0F39013A5C
:1027B800031DDF2BE02BE72B831203131F08C339FC
:1027C80008389F00272C831203131F0C8316031746
:1027D800E100610C0F39023A031DF32BF42BFB2B9C
:1027E800831203131F08C3390C389F00272C831248
:1027F80003131F0C83160317E100610C0F39033A0A
:10280800031D072C082C0F2C831203131F08C33930
:1028180010389F00272C831203131F0C83160317ED
:10282800E100610C0F39043A031D1B2C1C2C232CCE
:10283800831203131F08C33914389F00272CC33091
:10284800831203139F05283083160317E100E10B59
:102858002B2C2E2C831203139F1483160313560854
:10286800031D372C382C3E2C8312031308158811AE
:1028780086134E2C5603031D422C432C492C8312DD
:1028880003130811881586134E2C8312031308119D
:1028980088118617831603176403031D542C552CBF
:1028A800822C831203138615F93083160317E1006F
:1028B8005D2CE10B5C2C602C831203130612F9309B
:1028C80083160317E100682CE10B672C6B2C83122D
:1028D80003138616F93083160317E100732CE10BF6
:1028E800722C762C831203130613F9308316031700
:1028F800E1007E2CE10B7D2C812CE12C023064065A
:10290800031D872C882CB52C831203138611F930EC
:1029180083160317E100902CE10B8F2C932C831264
:1029280003130616F93083160317E1009B2CE10BFD
:102938009A2C9E2C831203138612F93083160317E0
:10294800E100A62CE10BA52CA92C83120313061772
:10295800F93083160317E100B12CE10BB02CB42C2D
:10296800E12C831203138611F93083160317E10053
:10297800BD2CE10BBC2CC02C831203130612F930BA
:1029880083160317E100C82CE10BC72CCB2C83124C
:1029980003138612F93083160317E100D32CE10BD9
:1029A800D22CD62C831203130613F930831603177F
:1029B800E100DE2CE10BDD2CE12C83160317630309
:1029C800031DE72CE82C152D831203130816F93084
:1029D80083160317E100F02CE10BEF2CF32C831284
:1029E80003138812F93083160317E100FB2CE10B5F
:1029F800FA2CFE2C831203130817F93083160317D9
:102A0800E100062DE10B052D092D83120313881310
:102A1800F93083160317E100112DE10B102D142D49
:102A2800BB2B02306306031D1A2D1B2D482D831264
:102A380003130812F93083160317E100232DE10B65
:102A4800222D262D831203138816F93083160317B7
:102A5800E1002E2DE10B2D2D312D831203130813C8
:102A6800F93083160317E100392DE10B382D3C2D81
:102A7800831203138817F93083160317E100442DD6
:102A8800E10B432D472DBB2B831203130812F9309A
:102A980083160317E100502DE10B4F2D532D8312A0
:102AA80003138812F93083160317E1005B2DE10B3D
:102AB8005A2D5E2D831203130813F930831603175A
:102AC800E100662DE10B652D692D83120313881330
:102AD800F93083160317E100712DE10B702D742D69
:102AE800BB2B0A128A111028831203135708803946
:102AF800DC005C08E4005708DC005C07DD005D08CA
:102B0800E600D61F882D892D8A2D661466080319BC
:102B18008E2D8F2D9F2D660A031D932D942D9C2D90
:102B28000030D7000030D6000030D5000030D40087
:102B3800D617D701A72D0030D7000030D6000030B7
:102B4800D5000030D4005B088039DC005C08E50063
:102B5800650864060319B12DB22DB32D64175B08FF
:102B6800DC005C07DD005D08E500DA1FBC2DBD2D2B
:102B7800BE2D651465080319C22DC32DD32D650A12
:102B8800031DC72DC82DD02D0030DB000030DA0022
:102B98000030D9000030D800DA17DB01DB2D003017
:102BA800DB000030DA000030D9000030D8006608B9
:102BB80065020318E02DE12D252E641FE42DE52D77
:102BC800E92D8030DC005C08E4066608DC005C085F
:102BD800E7006508DC005C08E6006708DC005C08C4
:102BE800E5005408DC005C08E7005808DC005C08D5
:102BF800D4006708DC005C08D8005508DC005C08D5
:102C0800E7005908DC005C08D5006708DC005C08B0
:102C1800D9005608DC005C08E7005A08DC005C08AC
:102C2800D6006708DC005C08DA005708DC005C089E
:102C3800E7005B08DC005C08D7006708DC005C087C
:102C4800DB00E7016508DC00DD015D08DF006608E0
:102C58005C02DE00031CDF035F08803AFF0080305F
:102C68007F02031D392E1A305E02031C3C2E3D2EB6
:102C78007A2E831203135708560455045404031D6F
:102C8800462E482E0130492E0030DC005C08E70053
:102C98000030D7000030D6000030D5000030D40016
:102CA8006508DC005C08E600822E671C5C2E5D2E41
:102CB800662E6708DC0003105C0C0138DD005D0837
:102CC800E700682E0310E70C541C6B2E6C2E6D2E3B
:102CD800E7170130DC00570DD70CD60CD50CD40CF7
:102CE800DC0B6F2E0130DC005C08E607831203134F
:102CF80065086602031C812E822E592E641B852EC0
:102D0800862ED12E6608031D8A2E8B2E942E003017
:102D1800D7000030D6000030D5000030D400FF2F97
:102D28005808D407590803110318013E03199D2EAA
:102D3800D5075A0803110318013E0319A42ED60714
:102D48005B0803110318013E0319AB2ED707571C64
:102D5800AE2EAF2E852F671CB22EB32EBC2E670861
:102D6800DC0003105C0C0138DD005D08E700BE2EB6
:102D78000310E70C541CC12EC22EC32EE7170130D6
:102D8800DC00570DD70CD60CD50CD40CDC0BC52E9B
:102D98000130DC005C08E607852F5708803AFF0001
:102DA8005B08803A7F02031DE32E5A085602031D72
:102DB800E32E59085502031DE32E58085402031840
:102DC800E62EE72E3F2FFF30DC00FF30DD00FF301E
:102DD800DE00FF30DF005808E0005908E1005A081B
:102DE800E2005B08E3005408E0025508031C550F95
:102DF800FE2EFF2EE1025608031C560F042F052F46
:102E0800E2025708031C570F0A2F0B2FE302600832
:102E1800DC0761080318610F122F132FDD07620802
:102E28000318620F182F192FDE0763080318630AA7
:102E3800DF075F08D7005E08D6005D08D5005C088C
:102E4800D4008030DC005C08E406E709E70A67087C
:102E5800031D2F2F302F4D2F0130D40700300318BA
:102E68000130D507003003180130D60700300318A9
:102E78000130D7074D2F5808D4025908031C590FA1
:102E8800D5025A08031C5A0FD6025B08031C5B0FB5
:102E9800D7025708560455045404031D542F552FC0
:102EA800812F6708031D592F5A2F812F0030D70013
:102EB8000030D6000030D5000030D400FF2F01309C
:102EC800DC000310D40DD50DD60DD70DDC0B652F06
:102ED800E71F6F2F702F712F5414671C742F752FD5
:102EE800782F0314E70D7A2F0310E70D66080319EE
:102EF8007E2F7F2F812F0130E602D61F842F852F4A
:102F0800632FE501E71F892F8A2F982F67087F39DC
:102F180003198F2F902F932FE501E50A982F541C42
:102F2800962F972F982F902F650803199C2F9D2F68
:102F3800D12F0130D407003003180130D5070030F5
:102F480003180130D607003003180130D707571C83
:102F5800AE2FAF2FD12F5408DC005508DD005608DE
:102F6800DE005708DF000130E0005F0DDF0CDE0CEB
:102F7800DD0CDC0CE00BB92F5F08D7005E08D6002B
:102F88005D08D5005C08D400660A0319CC2FCD2F44
:102F9800D12F0130DC005C08E607660A0319D52F3B
:102FA800D62FDB2F6608031DDA2FDB2FE92F003021
:102FB800D7000030D6000030D5000030D4006608B5
:102FC800031DE72FE82FE92FE401661CEC2FED2FF6
:102FD800EF2FD617F32F7F30DC005C08D605660884
:102FE800DC0003105C0CDD005D08D700E41FFD2F3A
:082FF800FE2FFF2FD717080080
:10376400F0007008831203178D00831603178C135F
:103774000C14831203170C080800FF308316031778
:1037840088008901FF308316031385008312031315
:1037940085010F30831603138900831203138901F3
:1037A40083160313880183120313880107308316D9
:1037B40003138600831203138601831603138113F4
:1037C4001514951415158B151614961416150B103F
:1037D40010308700831203138701831603130F0825
:1037E4008F3930388F000F14831203131F083F39A9
:1037F40040389F00831603131F129F12C330831295
:1038040003139F05831603139F13831203131F14BB
:103814000B2C0C2C000083160313071587149C3003
:1038240092008312031397013F3097051708F0396C
:103834000C3897001D08F0390C389D00263095008F
:103844003030970426309B001D169D128C100330D7
:10385400920412158C1C2F2C302C2C2C8C108316BB
:10386400031307118710F030831203139405141205
:1038740094168316031314179417FF30831203133B
:1038840093000B178B170C13831603130C170800E4
:1038940083160317DE005E03031D512C522C8B2C60
:1038A400D401FF30DC005C08D5001430D6000030B1
:1038B400D7005030D8000030D9005B080A168A11AE
:1038C40089200A168A15831603175508E000540840
:1038D400DF006008DD005F08DC000310DD0CDC0C99
:1038E4000310DD0CDC0C5C088312031395008316B3
:1038F40003175F080339DC00DC0E83120313170877
:10390400831603175C06CF395C06831203139700F2
:10391400D52CD401FF30DC005C08D5001430D6006F
:103924000030D7005030D8000030D9005B080A16A8
:103934008A1189200A168A15831603175508E00090
:103944005408DF006008DD005F08DC000310DD0CB4
:10395400DC0C0310DD0CDC0C5C08831203139B00ED
:10396400831603175F080239DC00DC0E831203138D
:103974001D08831603175C06EF395C0683120313D4
:103984009D00831603175F080139DC00DC0EDC0D93
:10399400831203131D08831603175C06DF395C06C4
:1039A400831203139D00080083160313AD002D0337
:1039B400031DDD2CDE2C192DA501FF30AB002B08D7
:1039C400A6001430A7000030A8005030A900003031
:1039D400AA00831203136F080A168A1594260A167E
:1039E4008A15831603132608AF002508AE002F0896
:1039F400AC002E08AB000310AC0CAB0C0310AC0CE9
:103A0400AB0C2B08831203139500831603132E08A3
:103A14000339AB00AB0E8312031317088316031389
:103A24002B06CF392B06831203139700652DA501AE
:103A3400FF30AB002B08A6001430A7000030A8000C
:103A44005030A9000030AA00831203136F080A162D
:103A54008A1594260A168A15831603132608AF00BE
:103A64002508AE002F08AC002E08AB000310AC0CE8
:103A7400AB0C0310AC0CAB0C2B08831203139B0090
:103A8400831603132E080239AB00AB0E8312031303
:103A94001D08831603132B06EF392B068312031319
:103AA4009D00831603132E080139AB00AB0EAB0D3A
:103AB400831203131D08831603132B06DF392B0609
:103AC400831203139D0008000310831603174D0D82
:103AD4004E0DCF004F0883160313D1005108031D68
:103AE400742D752D802D003083160317CE00003001
:103AF400CD000030CC000030CB00F72D8316031727
:103B04004B08CF004C08D0004D08D1004E08D2001D
:103B14001F300310D20CD10CD00CCF0CFF3E031D70
:103B24008B2D4F08D300530883160313D00083163C
:103B34000317CD17FF30CB05FF30CC05FF30CD0583
:103B44000030CE05963083160313D102D11FAB2D5E
:103B5400AC2DCA2D5108803A973E0318B22DB32DCF
:103B6400B42D752D0130031083160317CE0CCD0C24
:103B7400CC0CCB0CFF3E031DB52D0130CF004F08FC
:103B840083160313D107031DC82DC92DB42DE52DAC
:103B940020305102031CCF2DD02DE02D752D013086
:103BA40083160317CF000310CB0DCC0DCD0DCE0D16
:103BB400CF0BD52D013083160313D1025108031DF9
:103BC400E42DE52DD12D50080319E92DEA2DF72D0B
:103BD40083160317CB09CC09CD09CE09CB0A0319E7
:103BE400CC0A0319CD0A0319CE0A08000310831264
:103BF40003136A0D6B0D83160313A00020088312B0
:103C04000313ED006D08031D082E092E122E00303B
:103C1400EB000030EA000030E9000030E800932EA9
:103C2400680883160313A00083120313690883161C
:103C34000313A100831203136A0883160313A2005B
:103C4400831203136B0883160313A3001F3003109E
:103C5400A30CA20CA10CA00CFF3E031D292E2008CE
:103C6400A400240883120313EC00EA17FF30E805CC
:103C7400FF30E905FF30EA050030EB059630ED0230
:103C8400ED1F452E462E642E6D08803A973E03188C
:103C94004C2E4D2E4E2E092E01300310EB0CEA0C47
:103CA400E90CE80CFF3E031D4F2E0130831603136D
:103CB400A000200883120313ED07031D622E632E58
:103CC4004E2E832E20306D02031C692E6A2E7E2E0A
:103CD400092E013083160313A0000310831203136B
:103CE400E80DE90DEA0DEB0D83160313A00B6F2EFF
:103CF400013083120313ED026D08031D822E832EFF
:103D04006B2E6C080319872E882E932EE809E90977
:103D1400EA09EB09E80A0319E90A0319EA0A03198B
:103D2400EB0A080083120313EE008316031327081B
:103D3400F0002808F100F201F30100300A168A1598
:103D440046270A168A15730883120313DB007208C8
:103D5400DA007108D9007008D80083160313270805
:103D64002902F0002808031C280A2A02F100F201A3
:103D7400F30100300A168A1546270A168A157308B5
:103D840083120313A7007208A6007108A500700827
:103D9400A4008316031325082602F000F101031C76
:103DA400F103F201F11BF2037208F30001300A1669
:103DB4008A1546270A168A15730883120313A3006B
:103DC4007208A2007108A1007008A0000A168A11E6
:103DD40067210A168A15831203132308C1002208D7
:103DE400C0002108BF002008BE0083160313250865
:103DF400831203136E02F000F101031CF103F201BC
:103E0400F11BF2037208F30001300A168A154627E3
:103E14000A168A15730883120313BD007208BC00C6
:103E24007108BB007008BA000A128A11E1230A164D
:103E34008A15831203133D08D7003C08D6003B08BB
:103E4400D5003A08D4000A168A1178250A168A156C
:103E5400831203135708EB005608EA005508E900DB
:103E64005408E8000A168A15F8250A168A158312DA
:103E74000313690883160313A60083120313680847
:103E840083160313A5000800F800780803194B2FC4
:103E94004C2F602FF31F4F2F502F602F7009FA0003
:103EA4007109FB007209FC007309FD00FA0A031989
:103EB400FB0A0319FC0A0319FD0A682F7308FD00A5
:103EC4007208FC007108FB007008FA0073087204A1
:103ED40071047004031D6F2F702F792F0030F300CD
:103EE4000030F2000030F1000030F000FF2F963077
:103EF400F4007408F9008B2F0130F4007408F907FA
:103F040001300310FD0CFC0CFB0CFA0CFF3E031DEE
:103F1400832FFE307D05031D902F912F7E2FAD2F13
:103F24000130F4007408F9070130FA07003003186F
:103F34000130FB07003003180130FC070030031880
:103F44000130FD0701300310FD0CFC0CFB0CFA0CD6
:103F5400FF3E031DA52FFF307D05031DB22FB32F98
:103F6400922FBF2F0130F9020130F4000310FA0D33
:103F7400FB0DFC0DFD0DF40BB82FFC1BC22FC32F42
:103F8400C92F023079020318C82FC92FB42F79180A
:103F9400CC2FCD2FD52FFF30FA05FF30FB057F3016
:103FA400FC05FF30FD050310F90C7908F400F50158
:103FB400F601F70118300310F40DF50DF60DF70DA9
:103FC400FF3E031DDD2F7408FA047508FB04760810
:103FD400FC047708FD0478080319F12FF22FF72F5A
:103FE400F31FF52FF62FF72FFD177D08F3007C083C
:103FF400F2007B08F1007A08F0000800FF3FFF3F61
:04400400FF3FFF3F3C
:04400E00D420FF3F7C
:00000001FF
