:060000000A128A1110280B
:10000800FE00030E83160313B2000A08B3007F082C
:10001800B4000A128A15482D0A128A111328831669
:100028000313D201D301D401D501D601D701D801D8
:10003800D901DA0183160317E301E40183010A16E3
:100048008A11EB298316031720088039A500250893
:10005800AA002008A5002507A6002608B0009F1FB3
:100068003628372838283014300803193C283D280A
:100078004C28300A031D412842284A280030A00095
:1000880000309F0000309E0000309D009F175428CC
:100098000030A00000309F0000309E0000309D001E
:1000A80024088039A5002508AA062408A5002507E4
:1000B800A6002608AB00A31F6228632864282B1417
:1000C8002B0803196828692878282B0A031D6D282E
:1000D8006E2876280030A4000030A3000030A2006B
:1000E8000030A100A31780280030A4000030A3002E
:1000F8000030A2000030A1002B08031984288528AD
:100108008A283008031D89288A2893280030A000EF
:1001180000309F0000309E0000309D00E02B1D083D
:10012800A500250883160313B500831603172308B3
:100138000A168A112A200A128A118316031336080E
:1001480083160317B600831603133508831603179F
:10015800B5003508A500A601A701A8012808AF0029
:100168002708AE002608AD002508AC003608A50013
:10017800A601A701A8012808B4002708B30026088B
:10018800B2002508B1001E08A50025088316031330
:10019800B5008316031722080A168A112A200A12A4
:1001A8008A1183160313360883160317B6008316BD
:1001B8000313350883160317B5003508A500A601F3
:1001C800A701A8012508AC07260803110318013E5A
:1001D8000319EF28AD07270803110318013E031977
:1001E800F628AE07280803110318013E0319FD2855
:1001F800AF073608A500A601A701A8012508B10781
:10020800260803110318013E03190B29B207270812
:1002180003110318013E03191229B3072808031113
:100228000318013E03191929B4071F08A50025085A
:1002380083160313B5008316031721080A168A11BB
:100248002A200A128A118316031336088316031705
:10025800B60083160313350883160317B50035084F
:10026800A500A601A701A8012508AC0726080311C7
:100278000318013E03194129AD0727080311031884
:10028800013E03194829AE07280803110318013E47
:1002980003194F29AF073608A500A601A701A80131
:1002A8002508B107260803110318013E03195D2923
:1002B800B207270803110318013E03196429B3077D
:1002C800280803110318013E03196B29B4070830E5
:1002D800A5000310AC0DAD0DAE0DAF0DA50B6D292E
:1002E8001E08A500250883160313B50083160317F7
:1002F80021080A168A112A200A128A118316031362
:10030800360883160317B6008316031335088316B9
:100318000317B5003508A5003608A600A701A801EF
:100328002508AC07260803110318013E03199D2967
:10033800AD07270803110318013E0319A429AE07C6
:10034800280803110318013E0319AB29AF071D083C
:10035800A500250883160313B50083160317220882
:100368000A168A112A200A128A11831603133608DC
:1003780083160317B600831603133508831603176D
:10038800B5003508A5003608A600A701A80125086C
:10039800AC07260803110318013E0319D429AD0739
:1003A800270803110318013E0319DB29AE072808A3
:1003B80003110318013E0319E229AF070830A5000D
:1003C8000310AC0DAD0DAE0DAF0DA50BE4291D0846
:1003D800A500250883160313B50083160317210803
:1003E8000A168A112A200A128A118316031336085C
:1003F80083160317B60083160313350883160317ED
:10040800B5003508A5003608A600A701A8012508EB
:10041800AC07260803110318013E0319142AAD0777
:10042800270803110318013E03191B2AAE072808E1
:1004380003110318013E0319222AAF071E08A5005D
:10044800250883160313B5008316031723080A1615
:100458008A112A200A128A11831603133608831672
:100468000317B60083160313350883160317B50060
:100478003508A5003608A600A701A8012508B10778
:10048800260803110318013E03194B2AB20727084F
:1004980003110318013E0319522AB3072808031150
:1004A8000318013E0319592AB4071F08A500250897
:1004B80083160313B5008316031722080A168A1138
:1004C8002A200A128A118316031336088316031783
:1004D800B60083160313350883160317B5003508CD
:1004E800A5003608A600A701A8012508B107260817
:1004F80003110318013E0319822AB20727080311C2
:100508000318013E0319892AB307280803110318A1
:10051800013E0319902AB4071F08A5002508831671
:100528000313B5008316031723080A168A112A2015
:100538000A128A1183160313360883160317B600A6
:1005480083160313350883160317B5003508A5006D
:100558003608A600A701A80108300310A50DA60DAE
:10056800A70DA80DFF3E031DB12A2508B1072608CF
:1005780003110318013E0319C22AB2072708031101
:100588000318013E0319C92AB307280803110318E1
:10059800013E0319D02AB4072C08A5002D08A6008F
:1005A8002E08A7002F08A80018300310A80CA70CC5
:1005B800A60CA50CFF3E031DD92A2508B10726085D
:1005C80003110318013E0319EA2AB2072708031189
:1005D8000318013E0319F12AB30728080311031869
:1005E800013E0319F82AB4070830A5000310AC0D22
:1005F800AD0DAE0DAF0DA50BFA2A30082B07A500DF
:10060800A601A60D2508823EB50026080318013E5E
:10061800FF3EB6002C2B0130A5000310B10DB20D22
:10062800B30DB40DA50B112BAF1F1B2B1C2B1D2BB2
:1006380031140130A5000310AC0DAD0DAE0DAF0D9A
:10064800A50B1F2BFF30B5070318B60AFF30B607F6
:10065800B31F2F2B302B0F2BAB01AF1F342B352B98
:10066800512BFF302C05A500FF302D05A600FF30CB
:100678002E05A7007F302F05A80028082704260488
:1006880025040319482B492B4C2BAB01AB0A512BE2
:10069800311C4F2B502B512B492B2B080319552B51
:1006A800562B872B0130B107003003180130B207F1
:1006B800003003180130B307003003180130B407C5
:1006C800341C672B682B872B3108A5003208A6003D
:1006D8003308A7003408A8000130A900280DA80C89
:1006E800A70CA60CA50CA90B722B2808B400270888
:1006F800B3002608B2002508B1000130B507031879
:10070800B60A0030B6073608803AFF0080307F020C
:10071800031D902BFF303502031C932B942B9F2B2A
:100728007F3083160317B4008030B3000030B20066
:100738000030B100D42B831603173608803AFF0027
:1007480080307F02031DAA2B013035020318AD2B20
:10075800AE2BBA2B003083160317B4000030B30059
:100768000030B2000030B100AA01D42B8316031761
:100778003508A5002508B000FF30B105FF30B205E7
:100788007F30B3050030B405301CCB2BCC2BCD2BE0
:10079800B3173008A5000310250CA6002608B400DE
:1007A8002A08A5002508B4043408A00033089F00CF
:1007B80032089E0031089D000800831203133D088B
:1007C8008039C2004208C7003D08C2004207C30082
:1007D8004308CD00BC1FF12BF22BF32B4D144D0811
:1007E8000319F72BF82B072C4D0A031DFC2BFD2BA7
:1007F800052C0030BD000030BC000030BB000030CC
:10080800BA00BC170F2C0030BD000030BC0000300F
:10081800BB000030BA0041088039C2004208C70650
:100828004108C2004207C3004308CC00C01F1D2C6A
:100838001E2C1F2C4C144C080319232C242C332C4D
:100848004C0A031D282C292C312C0030C100003003
:10085800C0000030BF000030BE00C0173B2C003085
:10086800C1000030C0000030BF000030BE004C089E
:1008780003193F2C402C452C4D08031D442C452CB6
:100888004E2C0030BD000030BC000030BB000030F2
:10089800BA00412F3A08C2004208F00040080A1680
:1008A8008A1103200A128A11710883120313D300D4
:1008B8007008D2005208C200C301C401C50145082E
:1008C800CB004408CA004308C9004208C8005308BE
:1008D800C200C301C401C5014508D1004408D000C5
:1008E8004308CF004208CE003B08C2004208F0008F
:1008F8003F080A168A1103200A128A117108831206
:100908000313D3007008D2005208C200C301C40107
:10091800C5014208C807430803110318013E03191B
:10092800962CC907440803110318013E03199D2C8E
:10093800CA07450803110318013E0319A42CCB0765
:100948005308C200C301C401C5014208CE074308C9
:1009580003110318013E0319B22CCF0744080311F1
:100968000318013E0319B92CD007450803110318D1
:10097800013E0319C02CD1073C08C2004208F00010
:100988003E080A168A1103200A128A117108831276
:100998000313D3007008D2005208C200C301C40177
:1009A800C5014208C807430803110318013E03198B
:1009B800DE2CC907440803110318013E0319E52C6E
:1009C800CA07450803110318013E0319EC2CCB078D
:1009D8005308C200C301C401C5014208CE07430839
:1009E80003110318013E0319FA2CCF074408031119
:1009F8000318013E0319012DD007450803110318F8
:100A0800013E0319082DD1070830C2000310C80D94
:100A1800C90DCA0DCB0DC20B0A2D3B08C2004208F6
:100A2800F0003E080A168A1103200A128A1171087A
:100A380083120313D3007008D2005208C20053086F
:100A4800C300C401C5014208C807430803110318BD
:100A5800013E0319302DC907440803110318013E4C
:100A68000319372DCA07450803110318013E031956
:100A78003E2DCB073A08C2004208F0003F080A168C
:100A88008A1103200A128A11710883120313D300F2
:100A98007008D2005208C2005308C300C401C5013F
:100AA8004208C807430803110318013E03195D2DC6
:100AB800C907440803110318013E0319642DCA0726
:100AC800450803110318013E03196B2DCB070830A5
:100AD800C2000310C80DC90DCA0DCB0DC20B6D2D78
:100AE8003A08C2004208F0003E080A168A1103209C
:100AF8000A128A11710883120313D3007008D200F6
:100B08005208C2005308C300C401C5014208C807FF
:100B1800430803110318013E0319932DC90744081C
:100B280003110318013E03199A2DCA07450803113A
:100B38000318013E0319A12DCB073B08C200420848
:100B4800F00040080A168A1103200A128A11710857
:100B580083120313D3007008D2005208C20053084E
:100B6800C300C401C5014208CE0743080311031896
:100B7800013E0319C02DCF07440803110318013E95
:100B88000319C72DD007450803110318013E03199F
:100B9800CE2DD1073C08C2004208F0003F080A16D3
:100BA8008A1103200A128A11710883120313D300D1
:100BB8007008D2005208C2005308C300C401C5011E
:100BC8004208CE07430803110318013E0319ED2D0F
:100BD800CF07440803110318013E0319F42DD00769
:100BE800450803110318013E0319FB2DD1073C08E2
:100BF800C2004208F00040080A168A1103200A12AF
:100C08008A11710883120313D3007008D2005208A6
:100C1800C2005308C300C401C50108300310C20D47
:100C2800C30DC40DC50DFF3E031D122E4208CE078D
:100C3800430803110318013E0319232ECF07440864
:100C480003110318013E03192A2ED0074508031182
:100C58000318013E0319312ED1074808C20049087C
:100C6800C3004A08C4004B08C50018300310C50C5F
:100C7800C40CC30CC20CFF3E031D3A2E4208CE071B
:100C8800430803110318013E03194B2ECF074408EC
:100C980003110318013E0319522ED007450803110A
:100CA8000318013E0319592ED1070830C20003105A
:100CB800C80DC90DCA0DCB0DC20B5B2E4D084C07D4
:100CC800C200C301C30D4208823ED2004308031884
:100CD800013EFF3ED3008D2E0130C2000310CE0D21
:100CE800CF0DD00DD10DC20B722ECB1F7C2E7D2EB9
:100CF8007E2E4E140130C2000310C80DC90DCA0D56
:100D0800CB0DC20B802EFF30D2070318D30AFF3059
:100D1800D307D01F902E912E702ECC01CB1F952E6D
:100D2800962EB22EFF304805C200FF304905C30099
:100D3800FF304A05C4007F304B05C5004508440410
:100D4800430442040319A92EAA2EAD2ECC01CC0AC5
:100D5800B22E4E1CB02EB12EB22EAA2E4C0803195C
:100D6800B62EB72EE82E0130CE070030031801301A
:100D7800CF07003003180130D007003003180130C6
:100D8800D107511CC82EC92EE82E4E08C2004F08A4
:100D9800C3005008C4005108C5000130C600450D05
:100DA800C50CC40CC30CC20CC60BD32E4508D1000D
:100DB8004408D0004308CF004208CE000130D207D3
:100DC8000318D30A0030D3075308803AFF00803055
:100DD8007F02031DF12EFF305202031CF42EF52E64
:100DE800002F7F3083120313D1008030D0000030F1
:100DF800CF000030CE00352F831203135308803AFA
:100E0800FF0080307F02031D0B2F013052020318B0
:100E18000E2F0F2F1B2F003083120313D100003029
:100E2800D0000030CF000030CE00C701352F83122C
:100E380003135208C2004208CD00FF30CE05FF3030
:100E4800CF057F30D0050030D1054D1C2C2F2D2F1C
:100E58002E2FD0174D08C2000310420CC3004308C0
:100E6800D1004708C2004208D1045108BD0050080B
:100E7800BC004F08BB004E08BA00080083160313D5
:100E8800BD003D080319492F4A2F5E2FB81F4D2F6B
:100E98004E2F5E2F3509BF003609C0003709C10043
:100EA8003809C200BF0A0319C00A0319C10A031985
:100EB800C20A662F3808C2003708C1003608C000C9
:100EC8003508BF003808370436043504031D6D2F74
:100ED8006E2F772F0030B8000030B7000030B60012
:100EE8000030B500FD2F9630B9003908BE00892FB3
:100EF8000130B9003908BE0701300310C20CC10C1B
:100F0800C00CBF0CFF3E031D812FFE304205031DA0
:100F18008E2F8F2F7C2FAB2F0130B9003908BE07D9
:100F28000130BF07003003180130C0070030031834
:100F38000130C107003003180130C2070130031027
:100F4800C20CC10CC00CBF0CFF3E031DA32FFF3009
:100F58004205031DB02FB12F902FBD2F0130BE02C7
:100F68000130B9000310BF0DC00DC10DC20DB90B82
:100F7800B62FC11BC02FC12FC72F02303E02031846
:100F8800C62FC72FB22F3E18CA2FCB2FD32FFF3013
:100F9800BF05FF30C0057F30C105FF30C205031013
:100FA800BE0C3E08B900BA01BB01BC0118300310E1
:100FB800B90DBA0DBB0DBC0DFF3E031DDB2F390863
:100FC800BF043A08C0043B08C1043C08C2043D08F9
:100FD8000319EF2FF02FF52FB81FF32FF42FF52F4C
:100FE800C2174208B8004108B7004008B6003F08D9
:040FF800B500080038
:10101200F1007108831203178D0070088C0083168B
:1010220003178C130C158B130B1355308D00AA303C
:101032008D008C140C110B108B170B1708008316E4
:1010420003173A088039BF003F08C7003A08BF00BB
:101052003F07C0004008C900B91F30283128322894
:10106200491449080319362837284728490A031D15
:101072003B283C2844280030BA000030B900003038
:10108200B8000030B700B917BA014F280030BA00D3
:101092000030B9000030B8000030B7003E08803997
:1010A200BF003F08C80048084706031959285A28B4
:1010B2005B2847173E08BF003F07C0004008C80032
:1010C200BD1F6428652866284814480803196A2841
:1010D2006B287B28480A031D6F2870287828003067
:1010E200BE000030BD000030BC000030BB00BD17A8
:1010F200BE0183280030BE000030BD000030BC00BD
:101102000030BB0049084802031888288928CD28E6
:10111200471F8C288D2891288030BF003F08C706C2
:101122004908BF003F08CA004808BF003F08C9007D
:101132004A08BF003F08C8003708BF003F08CA007E
:101142003B08BF003F08B7004A08BF003F08BB008A
:101152003808BF003F08CA003C08BF003F08B8007B
:101162004A08BF003F08BC003908BF003F08CA0058
:101172003D08BF003F08B9004A08BF003F08BD0054
:101182003A08BF003F08CA003E08BF003F08BA0045
:101192004A08BF003F08BE00CA014808BF00C0019C
:1011A2004008C20049083F02C100031CC2034208B2
:1011B200803AFF0080307F02031DE1281A3041028D
:1011C200031CE428E5282229831603173A08390468
:1011D20038043704031DEE28F0280130F1280030CE
:1011E200BF003F08CA000030BA000030B90000302A
:1011F200B8000030B7004808BF003F08C9002A29DC
:101202004A1C042905290E294A08BF0003103F0C75
:101212000138C0004008CA0010290310CA0C371C4C
:10122200132914291529CA170130BF003A0DBA0C27
:10123200B90CB80CB70CBF0B17290130BF003F081F
:10124200C9078316031748084902031C29292A29BA
:101252000129471B2D292E2979294908031D3229E5
:1012620033293C290030BA000030B9000030B80000
:101272000030B700A72A3B08B7073C080311031840
:10128200013E03194529B8073D0803110318013E21
:1012920003194C29B9073E0803110318013E03192B
:1012A2005329BA073A1C562957292D2A4A1C5A296A
:1012B2005B2964294A08BF0003103F0C0138C000B3
:1012C2004008CA0066290310CA0C371C69296A291A
:1012D2006B29CA170130BF003A0DBA0CB90CB80C11
:1012E200B70CBF0B6D290130BF003F08C9072D2A7B
:1012F2003A08803AFF003E08803A7F02031D8B299C
:101302003D083902031D8B293C083802031D8B2935
:101312003B08370203188E298F29E729FF30BF00C7
:10132200FF30C000FF30C100FF30C2003B08C300E5
:101332003C08C4003D08C5003E08C6003708C30289
:101342003808031C380FA629A729C4023908031C30
:10135200390FAC29AD29C5023A08031C3A0FB2294C
:10136200B329C6024308BF0744080318440FBA2929
:10137200BB29C00745080318450FC029C129C10769
:1013820046080318460AC2074208BA004108B900D3
:101392004008B8003F08B7008030BF003F08C706CA
:1013A200CA09CA0A4A08031DD729D829F5290130D2
:1013B200B707003003180130B807003003180130B6
:1013C200B907003003180130BA07F5293B08B70204
:1013D2003C08031C3C0FB8023D08031C3D0FB90238
:1013E2003E08031C3E0FBA023A0839043804370497
:1013F200031DFC29FD29292A4A08031D012A022A64
:10140200292A0030BA000030B9000030B80000309C
:10141200B700A72A0130BF000310B70DB80DB90DF0
:10142200BA0DBF0B0D2ACA1F172A182A192A3714F8
:101432004A1C1C2A1D2A202A0314CA0D222A031020
:10144200CA0D49080319262A272A292A0130C90266
:10145200B91F2C2A2D2A0B2AC801CA1F312A322A67
:10146200402A4A087F390319372A382A3B2AC801F9
:10147200C80A402A371C3E2A3F2A402A382A4808EE
:101482000319442A452A792A0130B7070030031884
:101492000130B807003003180130B90700300318D3
:1014A2000130BA073A1C562A572A792A3708BF0050
:1014B2003808C0003908C1003A08C2000130C30030
:1014C200420DC20CC10CC00CBF0CC30B612A4208F6
:1014D200BA004108B9004008B8003F08B700490AFD
:1014E2000319742A752A792A0130BF003F08C907F7
:1014F200490A03197D2A7E2A832A4908031D822A62
:10150200832A912A0030BA000030B9000030B800B6
:101512000030B7004908031D8F2A902A912AC7017B
:10152200491C942A952A972AB9179B2A7F30BF0013
:101532003F08B9054908BF0003103F0CC00040082E
:10154200BA00C71FA52AA62AA72ABA170800831617
:1015520003134A088039CB004B0883160317940003
:10156200831603134A08CB004B07CC004C088316A2
:1015720003179B0083160313C91FC02AC12AC42A5A
:10158200831603171B14831603171B080319CA2A91
:10159200CB2ADE2A1B0A031DCF2AD02ADA2A0030E0
:1015A20083160313CA000030C9000030C80000309F
:1015B200C7000313C917CA01E82A003083160313B0
:1015C200CA000030C9000030C8000030C700460819
:1015D2008039CB004B088316031794068316031336
:1015E2004608CB004B07CC004C08831603179C001F
:1015F20083160313C51FFE2AFF2A022B8316031725
:101602001C14831603171C080319082B092B1C2B07
:101612001C0A031D0D2B0E2B182B003083160313EF
:10162200C6000030C5000030C4000030C300031300
:10163200C517C601262B003083160313C6000030DF
:10164200C5000030C4000030C3004608450444040D
:101652004304031D2D2B2E2B4B2B0030CA000030D0
:10166200C9000030C8000030C7008030C9047F3094
:10167200CA0483160317140883160313CB004B08FE
:10168200CA044A08C6004908C5004808C4004708F9
:10169200C300472D831603171B08031D512B522B22
:1016A2005D2B003083160313C6000030C5000030E6
:1016B200C4000030C300472D1B0883160313CB0060
:1016C200CC014C08CE00831603171C0883160313A3
:1016D2004B02CD00031CCE034D087F3E8316031739
:1016E2009500831603134E080318013E003E83162D
:1016F20003179600831603134A08831603179300F1
:1017020083160313490883160317920083160313E3
:10171200480883160317910083160313470883169C
:1017220003179000003083160313CA000030C9006B
:101732000030C8000030C7000030831603179A003B
:101742000030990000309800003097009C012F2C47
:101752001C080319AD2BAE2BDD2B013083160313AE
:10176200CB00031083160317900D910D920D930D6C
:1017720083160313CB0BB22B0130CB000310C70D22
:10178200C80DC90DCA0DCB0BBF2B831603179A1FA9
:10179200CB2BCC2BCF2B831603134714013003130F
:1017A200CB00031083160317970D980D990D9A0D10
:1017B20083160313CB0BD22B03134608831603178E
:1017C2001302031DFA2B831603134508831603170E
:1017D2001202031DFA2B8316031344088316031700
:1017E2001102031DFA2B83160313430883160317F2
:1017F2001002031CFD2BFE2B272C1A178316031332
:101802004308831603179002831603134408031C2C
:10181200440F0C2C0F2C831603179102831603130B
:101822004508031C450F162C192C83160317920228
:10183200831603134608031C460F202C232C831601
:1018420003179302831603138316031701308316BB
:101852000313CB004B08831603179C071A301C0294
:10186200031C342C352CA92B130812041104100468
:1018720003193C2C3D2C672C1714672C0130CB002C
:101882000310C70DC80DC90DCA0DCB0B412C831611
:1018920003179A1F4D2C4E2C512C831603134714F9
:1018A20001300313CB00031083160317970D980D15
:1018B200990D9A0D83160313CB0B542CFF3083160C
:1018C200031795070318960AFF309607831603132A
:1018D200C91F6C2C6D2C3F2C831603179C019A1F79
:1018E200732C742CA02CFF30170583160313CB0026
:1018F200FF3083160317180583160313CC00FF303D
:1019020083160317190583160313CD007F30831640
:1019120003171A0583160313CE004E084D044C0418
:101922004B040319952C962C9B2C831603179C01B0
:101932009C0AA02C471C9E2C9F2CA02C962C831614
:1019420003171C080319A62CA72CDC2C01308316C4
:101952000313C707003003180130C807003003180B
:101962000130C907003003180130CA074A1CBA2CDB
:10197200BB2CDC2C4708CB004808CC004908CD0022
:101982004A08CE000130CF004E0DCE0CCD0CCC0C4F
:10199200CB0CCF0BC52C4E08CA004D08C9004C0811
:1019A200C8004B08C70001308316031795070318B8
:1019B200960A00309607831603171608803AFF002E
:1019C20080307F02031DE72CFF301502031CEA2C36
:1019D200EB2CFB2CFF30831603179500003096008A
:1019E200003083160313CA000030C9000030C8005B
:1019F2000030C700831603171608803AFF008030B4
:101A02007F02031D062D013015020318092D0A2D30
:101A12001B2D8316031795019601003083160313BD
:101A2200CA000030C9000030C8000030C700831669
:101A32000317940183160317150883160313CB00AB
:101A42004B08831603179B001B1C282D292D2D2DB7
:101A520083160313C917332D7F3083160313CB006C
:101A62004B08C905831603171B0883160313CB0003
:101A720003104B0CCC004C08CA0083160317140841
:101A820083160313CB004B08CA04422B08000B1C1D
:101A92004B2D4C2DFA2E831203130618512D522D65
:101AA200602D013083160313B0003008D6070330CF
:101AB2005602031C5D2D5E2DF92ED601F92E8618D5
:101AC200632D642D322E831603135608031D6A2DCF
:101AD2006B2DD22D01300A168A1537240A128A1567
:101AE20083160313B000B1013008D4003108D500C9
:101AF2005408B000300883120313EF0001300A16B5
:101B02008A1590250A128A1583120313881002304F
:101B12000A168A1537240A128A150A168A155324B8
:101B22000A128A15093083160313B1001B30B00064
:101B3200B00B992DB10B992D9E2D03300A168A15E3
:101B420037240A128A1583160313B000B101300834
:101B5200D2003108D3005208B000300883120313B8
:101B6200EF0002300A168A1590250A128A1583128E
:101B72000313881404300A168A1537240A128A15A8
:101B82000A168A1553240A128A150930831603137A
:101B9200B1001B30B000B00BCC2DB10BCC2DD12D30
:101BA200F92E5603031DD62DD72DF92E5A08B00053
:101BB2003008F00001300A128A1509200A128A152B
:101BC200093083160313B1001B30B000B00BE72DB0
:101BD200B10BE72DEC2D831603135908B000300822
:101BE200F00002300A128A1509200A128A150930F9
:101BF20083160313B1001B30B000B00BFE2DB10BE6
:101C0200FE2D032E831603135808B0003008F0008F
:101C120003300A128A1509200A128A15093083161E
:101C22000313B1001B30B000B00B152EB10B152EF3
:101C32001A2E831603135708B0003008F000043040
:101C42000A128A1509200A128A150930831603130B
:101C5200B1001B30B000B00B2C2EB10B2C2E312E4C
:101C6200F92E0619352E362EF92E83160313560831
:101C7200031D3C2E3D2EA42E05300A168A1537244C
:101C82000A128A1583160313B000B1013008D4007A
:101C92003108D5005408B000300883120313EF0056
:101CA20001300A168A1590250A128A158312031327
:101CB200881006300A168A1537240A128A150A165F
:101CC2008A1553240A128A15093083160313B100A8
:101CD2001B30B000B00B6B2EB10B6B2E702E073089
:101CE2000A168A1537240A128A1583160313B000BE
:101CF200B1013008D2003108D3005208B0003008D8
:101D020083120313EF0002300A168A1590250A1275
:101D12008A1583120313881408300A168A15372489
:101D22000A128A150A168A1553240A128A150930CC
:101D320083160313B1001B30B000B00B9E2EB10B03
:101D42009E2EA32EF92E5603031DA82EA92EF92E80
:101D52005A08B0003008F00005300A128A1509202E
:101D62000A128A15093083160313B1001B30B00022
:101D7200B00BB92EB10BB92EBE2E83160313590820
:101D8200B0003008F00006300A128A1509200A1243
:101D92008A15093083160313B1001B30B000B00B53
:101DA200D02EB10BD02ED52E831603135808B000B7
:101DB2003008F00007300A128A1509200A128A1523
:101DC200093083160313B1001B30B000B00BE72EAD
:101DD200B10BE72EEC2E831603135708B000300820
:101DE200F00008300A128A1509200A128A15262ED6
:101DF2000B10831203130C1FFF2E002FF52F1F0C45
:101E020083160313B000300C0F39043A031D0A2F56
:101E12000B2F2B2F5830831203131E020318122F7D
:101E2200132F182F83160317E401E40A572FA73044
:101E32001E02031C1D2F1E2F272F02308316031391
:101E4200B000300883160317E400572F83160317D8
:101E5200E401572F831203131F0C83160313B000E0
:101E6200300C0F39053A031D372F382F572F5830B2
:101E7200831203131E0203183F2F402F452F831690
:101E82000317E301E30A572FA7301E02031C4A2F50
:101E92004B2F542F023083160313B00030088316E1
:101EA2000317E300572F83160317E30103135603A7
:101EB200031D5C2F5D2FF22F831203131F0C831659
:101EC2000313B000300C0F39003A031D692F6A2F3B
:101ED200832F831203131E0883160313B0003008E6
:101EE200DA00831203131E0883160313B0003008AE
:101EF20083120313EF0001300A168A1590250A1285
:101F02008A15F22F831203131F0C83160313B000DA
:101F1200300C0F39013A031D8F2F902FAD2F8312F2
:101F220003131E0883160313B0003008D90083126E
:101F3200031388101E080A168A1553240A128A15DA
:101F4200093083160313B1001B30B000B00BA72F6A
:101F5200B10BA72FAC2FF22F831203131F0C831682
:101F62000313B000300C0F39023A031DB92FBA2FF8
:101F7200D32F831203131E0883160313B0003008F5
:101F8200D800831203131E0883160313B00030080F
:101F920083120313EF0002300A168A1590250A12E3
:101FA2008A15F22F831203131F0C83160313B0003A
:101FB200300C0F39033A031DDF2FE02FF22F83126B
:101FC20003131E0883160313B0003008D7008312D0
:101FD200031388141E080A168A1553240A128A1536
:101FE200A12F831203130C13831603133408FF006B
:0E1FF20033088A00320E8300FE0E7E0E0900B8
:10200600F800F401F5017008F200F3017208F60019
:102016007308F700781C1028112817287608F4078B
:102026000318F50A7708F50701300310F60DF70DCA
:10203600FF3E031D18280310F80C7808031D2428FA
:1020460025280D287508F1007408F000080083168D
:102056000313BD00B901BA013508B700B801370846
:10206600BB003808BC003D1C39283A2840283B08EC
:10207600B9070318BA0A3C08BA0701300310BB0DAA
:10208600BC0DFF3E031D41280310BD0C3D08031D7A
:102096004D284E2836283A08B6003908B5000800FB
:1020A600F80078080319582859286D28F31F5C286A
:1020B6005D286D287009FA007109FB007209FC00A1
:1020C6007309FD00FA0A0319FB0A0319FC0A03192E
:1020D600FD0A75287308FD007208FC007108FB00F4
:1020E6007008FA007308720471047004031D7C28DA
:1020F6007D2886280030F3000030F2000030F10021
:102106000030F0000C299630F4007408F900982885
:102116000130F4007408F90701300310FD0CFC0CC3
:10212600FB0CFA0CFF3E031D9028FE307D05031DB7
:102136009D289E288B28BA280130F4007408F907D8
:102146000130FA07003003180130FB07003003188E
:102156000130FC07003003180130FD070130031081
:10216600FD0CFC0CFB0CFA0CFF3E031DB228FF30E5
:102176007D05031DBF28C0289F28CC280130F90201
:102186000130F4000310FA0DFB0DFC0DFD0DF40BF0
:10219600C528FC1BCF28D028D62802307902031880
:1021A600D528D628C1287918D928DA28E228FF3078
:1021B600FA05FF30FB057F30FC05FF30FD050310F7
:1021C600F90C7908F400F501F601F701183003104F
:1021D600F40DF50DF60DF70DFF3E031DEA28740804
:1021E600FA047508FB047608FC047708FD047808F1
:1021F6000319FE28FF280429F31F022903290429AD
:10220600FD177D08F3007C08F2007B08F1007A08D0
:10221600F000080083160317DA0056088316031326
:10222600B50083160317570883160313B600B701C4
:10223600B80100300A128A1142270A168A1183163B
:102246000313380883160317BE00831603133708D3
:1022560083160317BD008316031336088316031768
:10226600BC0083160313350883160317BB005608F4
:10227600580283160313B500831603175708031C69
:10228600570A590283160313B600B701B801003086
:102296000A128A1142270A168A118316031338086E
:1022A600CA003708C9003608C8003508C7008316B3
:1022B60003175408550283160313B500B601031C11
:1022C600B603B701B61BB7033708B80001300A12C8
:1022D6008A1142270A168A11831603133808C60084
:1022E6003708C5003608C4003508C3000A128A1527
:1022F600A8220A168A1183160313460883160317A3
:10230600A40083160313450883160317A300831638
:102316000313440883160317A20083160313430806
:1023260083160317A10054085A0283160313B50037
:10233600B601031CB603B701B61BB7033708B800CE
:1023460001300A128A1142270A168A1183160313CC
:10235600380883160317A00083160313370883165D
:1023660003179F00831603133608831603179E0070
:10237600831603133508831603179D000A128A1164
:1023860026200A168A11831603172008BA001F088A
:10239600B9001E08B8001D08B7000A128A152020C9
:1023A6000A168A11831603173A08CE003908CD009B
:1023B6003808CC003708CB000A168A1520260A16DC
:1023C6008A11831603174C08D5004B08D400080061
:1023D6000A168A1579240A168A1101300A168A15F0
:1023E60044240A168A1183160317E100E2016108E4
:1023F60083160313D4008316031762088316031388
:10240600D500540883160317E1006108DB0001308C
:102416000A168A1504250A168A11831203138810D0
:1024260002300A168A1544240A168A110A168A15D3
:1024360063240A168A11093083160317E2001B303B
:10244600E100E10B242AE20B242A292A03300A168A
:102456008A1544240A168A1183160317E100E2013D
:10246600610883160313D2008316031762088316C6
:102476000313D300520883160317E1006108DB003B
:1024860002300A168A1504250A168A1183120313C6
:10249600881404300A168A1544240A168A110A1664
:1024A6008A1563240A168A11093083160317E20077
:1024B6001B30E100E10B5D2AE20B5D2A622A8312E2
:1024C60003139F18672A682AD82A1F0C8316031736
:1024D600E100610C0F39003A031D722A732A7A2A29
:1024E600831203131F08C33904389F00CE2A8312B0
:1024F60003131F0C83160317E100610C0F39013A11
:10250600031D862A872A8E2A831203131F08C339BE
:1025160008389F00CE2A831203131F0C8316031755
:10252600E100610C0F39023A031D9A2A9B2AA22A5E
:10253600831203131F08C3390C389F00CE2A831257
:1025460003131F0C83160317E100610C0F39033ABE
:10255600031DAE2AAF2AB62A831203131F08C339F6
:1025660010389F00CE2A831203131F0C83160317FD
:10257600E100610C0F39043A031DC22AC32ACA2A94
:10258600831203131F08C33914389F00CE2AC330A1
:10259600831203139F05283083160317E100E10B0E
:1025A600D22AD52A831203139F14831603135608BF
:1025B600031DDE2ADF2AE52A831203130815881174
:1025C6008613F52A5603031DE92AEA2AF02A8312FE
:1025D6000313081188158613F52A831203130811AD
:1025E60088118617831603176403031DFB2AFC2A2A
:1025F600132B831203138615F93083160317E10094
:10260600042BE10B032B072B831203130612F9305D
:1026160083160317E1000F2BE10B0E2B122B462B13
:1026260002306406031D182B192B302B831203135B
:102636008611F93083160317E100212BE10B202BBD
:10264600242B831203130616F93083160317E100B1
:102656002C2BE10B2B2B2F2B462B831203138611CE
:10266600F93083160317E100382BE10B372B3B2B90
:10267600831203130612F93083160317E100432B66
:10268600E10B422B462B831603176303031D4C2BCA
:102696004D2B642B831203138616F930831603170A
:1026A600E100552BE10B542B582B83120313061311
:1026B600F93083160317E100602BE10B5F2B632BC8
:1026C600622A02306306031D692B6A2B812B831253
:1026D60003138612F93083160317E100722BE10B00
:1026E600712B752B831203130617F9308316031704
:1026F600E1007D2BE10B7C2B802B622A83120313D6
:102706008612F93083160317E100892BE10B882B1B
:102716008C2B831203130613F93083160317E1007B
:10272600942BE10B932B972B622A0A128A111028FD
:102736008312031327088039A8002808B100270848
:10274600A8002807A9002908B800A61FAB2BAC2BA8
:10275600AD2B381438080319B12BB22BC22B380A0B
:10276600031DB62BB72BBF2B0030A7000030A600E9
:102776000030A5000030A400A617A701CA2B003020
:10278600A7000030A6000030A5000030A4002308F2
:102796008039A8002808B1062308A8002807A90040
:1027A6002908B900A21FD82BD92BDA2B39143908DE
:1027B6000319DE2BDF2BEF2B390A031DE32BE42B4A
:1027C600EC2B0030A3000030A2000030A100003046
:1027D600A000A217A301F72B0030A3000030A2002F
:1027E6000030A1000030A0002308220421042004A8
:1027F600031DFE2BFF2B182C0030A7000030A6006F
:102806000030A5000030A4008030A6047F30A70465
:102816003108A8002808A7042708A3002608A20054
:102826002508A1002408A000772D3808031D1C2CBC
:102836001D2C262C0030A3000030A2000030A10081
:102846000030A000772D3808A800A9012908AB00A0
:1028560039082802AA00031CAB032A087F3EB200EF
:102866002B080318013E003EB3002708B0002608D7
:10287600AF002508AE002408AD000030A7000030E8
:10288600A6000030A5000030A4000030B7000030DC
:10289600B6000030B5000030B400B9019C2C3908F0
:1028A6000319562C572C772C0130A8000310AD0DB8
:1028B600AE0DAF0DB00DA80B592C0130A8000310BA
:1028C600A40DA50DA60DA70DA80B622CB71F6C2C89
:1028D6006D2C6E2C24140130A8000310B40DB50D18
:1028E600B60DB70DA80B702C23083002031D852CDE
:1028F60022082F02031D852C21082E02031D852C7C
:1029060020082D02031C882C892C982C37172008A8
:10291600AD022108031C210FAE022208031C220F60
:10292600AF022308031C230FB0020130A8002808B9
:10293600B9071A303902031CA12CA22C522C3008DC
:102946002F042E042D040319A92CAA2CC92C3414E7
:10295600C92C0130A8000310A40DA50DA60DA70DC6
:10296600A80BAE2CB71FB82CB92CBA2C24140130E6
:10297600A8000310B40DB50DB60DB70DA80BBC2CF1
:10298600FF30B2070318B30AFF30B307A61FCC2CDB
:10299600CD2CAC2CB901B71FD12CD22CEE2CFF308C
:1029A6003405A800FF303505A900FF303605AA001A
:1029B6007F303705AB002B082A04290428040319A5
:1029C600E52CE62CE92CB901B90AEE2C241CEC2CDA
:1029D600ED2CEE2CE62C39080319F22CF32C242DC1
:1029E6000130A407003003180130A5070030031892
:1029F6000130A607003003180130A707271C042D55
:102A0600052D242D2408A8002508A9002608AA00BB
:102A16002708AB000130AC002B0DAB0CAA0CA90C9F
:102A2600A80CAC0B0F2D2B08A7002A08A600290816
:102A3600A5002808A4000130B2070318B30A003025
:102A4600B3073308803AFF0080307F02031D2D2D27
:102A5600FF303202031C302D312D3F2DFF30831203
:102A66000313B2000030B3000030A7000030A60008
:102A76000030A5000030A400831203133308803A07
:102A8600FF0080307F02031D4A2D013032020318F9
:102A96004D2D4E2D5B2D83120313B201B301003071
:102AA600A7000030A6000030A5000030A400B10148
:102AB600831203133208A8002808B800381C642DB6
:102AC600652D672DA6176B2D7F30A8002808A60553
:102AD6003808A8000310280CA9002908A700310807
:102AE600A8002808A7040F2C080083120313570810
:102AF6008039DC005C08E4005708DC005C07DD0078
:102B06005D08E600D61F882D892D8A2D6614660875
:102B160003198E2D8F2D9F2D660A031D932D942D3F
:102B26009C2D0030D7000030D6000030D500003094
:102B3600D400D617D701A72D0030D7000030D60015
:102B46000030D5000030D4005B088039DC005C081A
:102B5600E500650864060319B12DB22DB32D64177F
:102B66005B08DC005C07DD005D08E500DA1FBC2DB4
:102B7600BD2DBE2D651465080319C22DC32DD32D99
:102B8600650A031DC72DC82DD02D0030DB0000308F
:102B9600DA000030D9000030D800DA17DB01DB2D6F
:102BA6000030DB000030DA000030D9000030D800F9
:102BB600660865020318E02DE12D252E641FE42D1D
:102BC600E52DE92D8030DC005C08E4066608DC00B3
:102BD6005C08E7006508DC005C08E6006708DC00C6
:102BE6005C08E5005408DC005C08E7005808DC00D7
:102BF6005C08D4006708DC005C08D8005508DC00D7
:102C06005C08E7005908DC005C08D5006708DC00B2
:102C16005C08D9005608DC005C08E7005A08DC00AE
:102C26005C08D6006708DC005C08DA005708DC00A0
:102C36005C08E7005B08DC005C08D7006708DC007E
:102C46005C08DB00E7016508DC00DD015D08DF00EC
:102C560066085C02DE00031CDF035F08803AFF00A3
:102C660080307F02031D392E1A305E02031C3C2E73
:102C76003D2E7A2E83120313570856045504540426
:102C8600031D462E482E0130492E0030DC005C081C
:102C9600E7000030D7000030D6000030D500003005
:102CA600D4006508DC005C08E600822E671C5C2EFA
:102CB6005D2E662E6708DC0003105C0C0138DD0013
:102CC6005D08E700682E0310E70C541C6B2E6C2E73
:102CD6006D2EE7170130DC00570DD70CD60CD50C3E
:102CE600D40CDC0B6F2E0130DC005C08E607831287
:102CF600031365086602031C812E822E592E641B5F
:102D0600852E862ED12E6608031D8A2E8B2E942E96
:102D16000030D7000030D6000030D5000030D40097
:102D2600FF2F5808D407590803110318013E031949
:102D36009D2ED5075A0803110318013E0319A42E28
:102D4600D6075B0803110318013E0319AB2ED707FC
:102D5600571CAE2EAF2E852F671CB22EB32EBC2E5F
:102D66006708DC0003105C0C0138DD005D08E70035
:102D7600BE2E0310E70C541CC12EC22EC32EE7171D
:102D86000130DC00570DD70CD60CD50CD40CDC0B5F
:102D9600C52E0130DC005C08E607852F5708803A0F
:102DA600FF005B08803A7F02031DE32E5A08560295
:102DB600031DE32E59085502031DE32E580854023D
:102DC6000318E62EE72E3F2FFF30DC00FF30DD0034
:102DD600FF30DE00FF30DF005808E0005908E10050
:102DE6005A08E2005B08E3005408E0025508031C99
:102DF600550FFE2EFF2EE1025608031C560F042F18
:102E0600052FE2025708031C570F0A2F0B2FE30268
:102E16006008DC0761080318610F122F132FDD0706
:102E260062080318620F182F192FDE0763080318AC
:102E3600630ADF075F08D7005E08D6005D08D50085
:102E46005C08D4008030DC005C08E406E709E70A89
:102E56006708031D2F2F302F4D2F0130D407003068
:102E660003180130D507003003180130D6070030AB
:102E760003180130D7074D2F5808D4025908031CF0
:102E8600590FD5025A08031C5A0FD6025B08031CB9
:102E96005B0FD7025708560455045404031D542FDC
:102EA600552F812F6708031D592F5A2F812F003068
:102EB600D7000030D6000030D5000030D400FF2FF8
:102EC6000130DC000310D40DD50DD60DD70DDC0B6B
:102ED600652FE71F6F2F702F712F5414671C742FE7
:102EE600752F782F0314E70D7A2F0310E70D660868
:102EF60003197E2F7F2F812F0130E602D61F842FE4
:102F0600852F632FE501E71F892F8A2F982F6708E2
:102F16007F3903198F2F902F932FE501E50A982FFC
:102F2600541C962F972F982F902F650803199C2FC6
:102F36009D2FD12F0130D407003003180130D5075B
:102F4600003003180130D607003003180130D707C8
:102F5600571CAE2FAF2FD12F5408DC005508DD00CB
:102F66005608DE005708DF000130E0005F0DDF0C79
:102F7600DE0CDD0CDC0CE00BB92F5F08D7005E0819
:102F8600D6005D08D5005C08D400660A0319CC2F6C
:102F9600CD2FD12F0130DC005C08E607660A031945
:102FA600D52FD62FDB2F6608031DDA2FDB2FE92F4F
:102FB6000030D7000030D6000030D5000030D400F5
:102FC6006608031DE72FE82FE92FE401661CEC2FA6
:102FD600ED2FEF2FD617F32F7F30DC005C08D605D8
:102FE6006608DC0003105C0CDD005D08D700E41FFA
:0A2FF600FD2FFE2FFF2FD717080054
:10386E00F0007008831203178D00831603178C1354
:10387E000C14831203170C08080083160313B500EB
:10388E003508831203178D00831603178C130C143F
:10389E00831203170C080800F0008312031308109C
:1038AE007008930083160313141C5E2C5F2C592C86
:1038BE00831203130814080083160313B500831232
:1038CE000313081083160313350883120313930092
:1038DE0083160313141C742C752C6F2C8312031374
:1038EE0008140800FF308316031788008901FF3083
:1038FE008316031385008312031385010F3083167D
:10390E00031389008312031389018316031388019D
:10391E008312031388010730831603138600831264
:10392E0003138601831603138113151495141515AD
:10393E008B151614961416150B1010308700831263
:10394E0003138701831603130F088F3930388F0046
:10395E000F14831203131F083F3940389F0083163C
:10396E0003131F129F12C330831203139F05831676
:10397E0003139F13831203131F14C52CC62C0000B0
:10398E0083160313071587149C30920083120313BA
:10399E0097013F3097051708F0390C3897001D082E
:1039AE00F0390C389D0026309500303097042630C3
:1039BE009B001D169D128C100330920412158C1C48
:1039CE00E92CEA2CE62C8C108316031307118710B2
:1039DE00F0308312031394051412941683160313F6
:1039EE0014179417FF308312031393000B178B17C2
:1039FE000C13831603130C17080083160317DE002F
:103A0E005E03031D0B2D0C2D452DD401FF30DC0064
:103A1E005C08D5001430D6000030D7005030D800E6
:103A2E000030D9005B080A168A110D210A168A1574
:103A3E00831603175508E0005408DF006008DD0008
:103A4E005F08DC000310DD0CDC0C0310DD0CDC0C5D
:103A5E005C08831203139500831603175F0803395E
:103A6E00DC00DC0E831203131708831603175C06A3
:103A7E00CF395C068312031397008F2DD401FF30CC
:103A8E00DC005C08D5001430D6000030D700503072
:103A9E00D8000030D9005B080A168A110D210A16CB
:103AAE008A15831603175508E0005408DF006008D6
:103ABE00DD005F08DC000310DD0CDC0C0310DD0CF8
:103ACE00DC0C5C08831203139B00831603175F083C
:103ADE000239DC00DC0E831203131D088316031754
:103AEE005C06EF395C06831203139D0083160317E1
:103AFE005F080139DC00DC0EDC0D831203131D0898
:103B0E00831603175C06DF395C06831203139D00D0
:103B1E00080083160313AD002D03031D972D982D5A
:103B2E00D32DA501FF30AB002B08A6001430A70043
:103B3E000030A8005030A9000030AA0083120313F1
:103B4E006F080A168A154E270A168A15831603134E
:103B5E002608AF002508AE002F08AC002E08AB00DB
:103B6E000310AC0CAB0C0310AC0CAB0C2B0883127B
:103B7E0003139500831603132E080339AB00AB0E07
:103B8E00831203131708831603132B06CF392B0644
:103B9E008312031397001F2EA501FF30AB002B08D5
:103BAE00A6001430A7000030A8005030A900003045
:103BBE00AA00831203136F080A168A154E270A16D7
:103BCE008A15831603132608AF002508AE002F08AA
:103BDE00AC002E08AB000310AC0CAB0C0310AC0CFD
:103BEE00AB0C2B08831203139B00831603132E08B2
:103BFE000239AB00AB0E831203131D088316031399
:103C0E002B06EF392B06831203139D008316031325
:103C1E002E080139AB00AB0EAB0D831203131D083A
:103C2E00831603132B06DF392B06831203139D0015
:103C3E0008000310831603174D0D4E0DCF004F08CD
:103C4E0083160313D1005108031D2E2E2F2E3A2E4C
:103C5E00003083160317CE000030CD000030CC00AC
:103C6E000030CB00B12E831603174B08CF004C0843
:103C7E00D0004D08D1004E08D2001F300310D20CD8
:103C8E00D10CD00CCF0CFF3E031D452E4F08D30098
:103C9E00530883160313D00083160317CD17FF3076
:103CAE00CB05FF30CC05FF30CD050030CE0596306C
:103CBE0083160313D102D11F652E662E842E510852
:103CCE00803A973E03186C2E6D2E6E2E2F2E0130DD
:103CDE00031083160317CE0CCD0CCC0CCB0CFF3E71
:103CEE00031D6F2E0130CF004F0883160313D1072B
:103CFE00031D822E832E6E2E9F2E20305102031C0A
:103D0E00892E8A2E9A2E2F2E013083160317CF005E
:103D1E000310CB0DCC0DCD0DCE0DCF0B8F2E013054
:103D2E0083160313D1025108031D9E2E9F2E8B2E38
:103D3E0050080319A32EA42EB12E83160317CB09F8
:103D4E00CC09CD09CE09CB0A0319CC0A0319CD0A29
:103D5E000319CE0A08000310831203136A0D6B0DAC
:103D6E0083160313A000200883120313ED006D08C1
:103D7E00031DC22EC32ECC2E0030EB000030EA0005
:103D8E000030E9000030E8004D2F68088316031359
:103D9E00A00083120313690883160313A100831274
:103DAE0003136A0883160313A200831203136B080E
:103DBE0083160313A3001F300310A30CA20CA10C37
:103DCE00A00CFF3E031DE32E2008A400240883123E
:103DDE000313EC00EA17FF30E805FF30E905FF306A
:103DEE00EA050030EB059630ED02ED1FFF2E002F99
:103DFE001E2F6D08803A973E0318062F072F082FA7
:103E0E00C32E01300310EB0CEA0CE90CE80CFF3E5C
:103E1E00031D092F013083160313A00020088312FF
:103E2E000313ED07031D1C2F1D2F082F3D2F2030D0
:103E3E006D02031C232F242F382FC32E013083161F
:103E4E000313A000031083120313E80DE90DEA0D0E
:103E5E00EB0D83160313A00B292F013083120313CE
:103E6E00ED026D08031D3C2F3D2F252F6C08031905
:103E7E00412F422F4D2FE809E909EA09EB09E80A1B
:103E8E000319E90A0319EA0A0319EB0A0800831257
:103E9E000313EE00831603132708F0002808F10021
:103EAE00F201F30100300A168A1153200A168A1500
:103EBE00730883120313DB007208DA007108D9004D
:103ECE007008D8008316031327082902F00028086B
:103EDE00031C280A2A02F100F201F30100300A162F
:103EEE008A1153200A168A15730883120313A7002A
:103EFE007208A6007108A5007008A40083160313AB
:103F0E0025082602F000F101031CF103F201F11B5A
:103F1E00F2037208F30001300A168A1153200A16B2
:103F2E008A15730883120313A3007208A200710886
:103F3E00A1007008A0000A168A119B230A168A1582
:103F4E00831203132308C1002208C0002108BF00FA
:103F5E002008BE00831603132508831203136E0276
:103F6E00F000F101031CF103F201F11BF2037208E0
:103F7E00F30001300A168A1153200A168A157308A7
:103F8E0083120313BD007208BC007108BB007008D9
:103F9E00BA000A128A11E1230A168A158312031334
:103FAE003D08D7003C08D6003B08D5003A08D4009F
:103FBE000A168A1178250A168A15831203135708D2
:103FCE00EB005608EA005508E9005408E8000A1606
:103FDE008A15B2260A168A158312031369088316E8
:103FEE000313A60083120313680883160313A50098
:0A3FFE000800FF3FFF3FFF3FFF3FB9
:04400E00D420FF3F7C
:00000001FF
